{
  "address": "0xE9a499b3ceED8512e67aA8b21EaACf109006207a",
  "abi": [
    {
      "inputs": [
        {
          "internalType": "contract ISuperfluid",
          "name": "_host",
          "type": "address"
        },
        {
          "internalType": "contract IV3SwapRouter",
          "name": "_swapRouter",
          "type": "address"
        }
      ],
      "stateMutability": "nonpayable",
      "type": "constructor"
    },
    {
      "inputs": [
        {
          "internalType": "address",
          "name": "whitelistedRoot",
          "type": "address"
        }
      ],
      "name": "ALREADY_CLAIMED",
      "type": "error"
    },
    {
      "inputs": [],
      "name": "CLAIMFOR_DISABLED",
      "type": "error"
    },
    {
      "inputs": [],
      "name": "EMPTY_MANAGER",
      "type": "error"
    },
    {
      "inputs": [
        {
          "internalType": "int96",
          "name": "curFeeRate",
          "type": "int96"
        },
        {
          "internalType": "int96",
          "name": "newFeeRate",
          "type": "int96"
        }
      ],
      "name": "FEE_FLOW_FAILED",
      "type": "error"
    },
    {
      "inputs": [],
      "name": "INVALID_0_VALUE",
      "type": "error"
    },
    {
      "inputs": [],
      "name": "MAX_MEMBERS_REACHED",
      "type": "error"
    },
    {
      "inputs": [
        {
          "internalType": "uint256",
          "name": "claimers",
          "type": "uint256"
        }
      ],
      "name": "MAX_PERIOD_CLAIMERS_REACHED",
      "type": "error"
    },
    {
      "inputs": [
        {
          "internalType": "int96",
          "name": "flowRate",
          "type": "int96"
        }
      ],
      "name": "MIN_FLOWRATE",
      "type": "error"
    },
    {
      "inputs": [
        {
          "internalType": "address",
          "name": "manager",
          "type": "address"
        }
      ],
      "name": "NOT_MANAGER",
      "type": "error"
    },
    {
      "inputs": [
        {
          "internalType": "address",
          "name": "claimer",
          "type": "address"
        }
      ],
      "name": "NOT_MEMBER",
      "type": "error"
    },
    {
      "inputs": [
        {
          "internalType": "address",
          "name": "whitelistedRoot",
          "type": "address"
        }
      ],
      "name": "NOT_WHITELISTED",
      "type": "error"
    },
    {
      "inputs": [],
      "name": "NotAcceptedSuperToken",
      "type": "error"
    },
    {
      "inputs": [],
      "name": "NotImplemented",
      "type": "error"
    },
    {
      "inputs": [
        {
          "internalType": "address",
          "name": "",
          "type": "address"
        }
      ],
      "name": "ONLY_HOST_OR_SENDER",
      "type": "error"
    },
    {
      "inputs": [],
      "name": "UNSUPPORTED_TOKEN",
      "type": "error"
    },
    {
      "inputs": [],
      "name": "UnauthorizedHost",
      "type": "error"
    },
    {
      "inputs": [],
      "name": "ZERO_ADDRESS",
      "type": "error"
    },
    {
      "inputs": [],
      "name": "ZERO_AMOUNT",
      "type": "error"
    },
    {
      "anonymous": false,
      "inputs": [
        {
          "indexed": false,
          "internalType": "address",
          "name": "previousAdmin",
          "type": "address"
        },
        {
          "indexed": false,
          "internalType": "address",
          "name": "newAdmin",
          "type": "address"
        }
      ],
      "name": "AdminChanged",
      "type": "event"
    },
    {
      "anonymous": false,
      "inputs": [
        {
          "indexed": true,
          "internalType": "address",
          "name": "beacon",
          "type": "address"
        }
      ],
      "name": "BeaconUpgraded",
      "type": "event"
    },
    {
      "anonymous": false,
      "inputs": [
        {
          "indexed": false,
          "internalType": "uint8",
          "name": "version",
          "type": "uint8"
        }
      ],
      "name": "Initialized",
      "type": "event"
    },
    {
      "anonymous": false,
      "inputs": [
        {
          "components": [
            {
              "internalType": "address",
              "name": "manager",
              "type": "address"
            },
            {
              "internalType": "contract IMembersValidator",
              "name": "membersValidator",
              "type": "address"
            },
            {
              "internalType": "contract IIdentityV2",
              "name": "uniquenessValidator",
              "type": "address"
            },
            {
              "internalType": "contract IERC20Upgradeable",
              "name": "rewardToken",
              "type": "address"
            }
          ],
          "indexed": false,
          "internalType": "struct PoolSettings",
          "name": "settings",
          "type": "tuple"
        }
      ],
      "name": "PoolSettingsChanged",
      "type": "event"
    },
    {
      "anonymous": false,
      "inputs": [
        {
          "indexed": true,
          "internalType": "bytes32",
          "name": "role",
          "type": "bytes32"
        },
        {
          "indexed": true,
          "internalType": "bytes32",
          "name": "previousAdminRole",
          "type": "bytes32"
        },
        {
          "indexed": true,
          "internalType": "bytes32",
          "name": "newAdminRole",
          "type": "bytes32"
        }
      ],
      "name": "RoleAdminChanged",
      "type": "event"
    },
    {
      "anonymous": false,
      "inputs": [
        {
          "indexed": true,
          "internalType": "bytes32",
          "name": "role",
          "type": "bytes32"
        },
        {
          "indexed": true,
          "internalType": "address",
          "name": "account",
          "type": "address"
        },
        {
          "indexed": true,
          "internalType": "address",
          "name": "sender",
          "type": "address"
        }
      ],
      "name": "RoleGranted",
      "type": "event"
    },
    {
      "anonymous": false,
      "inputs": [
        {
          "indexed": true,
          "internalType": "bytes32",
          "name": "role",
          "type": "bytes32"
        },
        {
          "indexed": true,
          "internalType": "address",
          "name": "account",
          "type": "address"
        },
        {
          "indexed": true,
          "internalType": "address",
          "name": "sender",
          "type": "address"
        }
      ],
      "name": "RoleRevoked",
      "type": "event"
    },
    {
      "anonymous": false,
      "inputs": [
        {
          "indexed": true,
          "internalType": "address",
          "name": "supporter",
          "type": "address"
        },
        {
          "indexed": false,
          "internalType": "uint256",
          "name": "previousContribution",
          "type": "uint256"
        },
        {
          "indexed": false,
          "internalType": "uint256",
          "name": "contribution",
          "type": "uint256"
        },
        {
          "indexed": false,
          "internalType": "int96",
          "name": "previousFlowRate",
          "type": "int96"
        },
        {
          "indexed": false,
          "internalType": "int96",
          "name": "flowRate",
          "type": "int96"
        },
        {
          "indexed": false,
          "internalType": "bool",
          "name": "isFlowUpdate",
          "type": "bool"
        }
      ],
      "name": "SupporterUpdated",
      "type": "event"
    },
    {
      "anonymous": false,
      "inputs": [
        {
          "indexed": false,
          "internalType": "uint256",
          "name": "day",
          "type": "uint256"
        },
        {
          "indexed": false,
          "internalType": "uint256",
          "name": "dailyUbi",
          "type": "uint256"
        },
        {
          "indexed": false,
          "internalType": "uint256",
          "name": "blockNumber",
          "type": "uint256"
        },
        {
          "indexed": false,
          "internalType": "uint256",
          "name": "periodClaimers",
          "type": "uint256"
        },
        {
          "indexed": false,
          "internalType": "uint256",
          "name": "periodDistributed",
          "type": "uint256"
        }
      ],
      "name": "UBICalculated",
      "type": "event"
    },
    {
      "anonymous": false,
      "inputs": [
        {
          "indexed": true,
          "internalType": "address",
          "name": "whitelistedRoot",
          "type": "address"
        },
        {
          "indexed": true,
          "internalType": "address",
          "name": "claimer",
          "type": "address"
        },
        {
          "indexed": false,
          "internalType": "uint256",
          "name": "amount",
          "type": "uint256"
        }
      ],
      "name": "UBIClaimed",
      "type": "event"
    },
    {
      "anonymous": false,
      "inputs": [
        {
          "indexed": false,
          "internalType": "uint256",
          "name": "day",
          "type": "uint256"
        },
        {
          "indexed": false,
          "internalType": "uint256",
          "name": "pool",
          "type": "uint256"
        },
        {
          "indexed": false,
          "internalType": "uint256",
          "name": "cycleLength",
          "type": "uint256"
        },
        {
          "indexed": false,
          "internalType": "uint256",
          "name": "dailyUBIPool",
          "type": "uint256"
        }
      ],
      "name": "UBICycleCalculated",
      "type": "event"
    },
    {
      "anonymous": false,
      "inputs": [
        {
          "components": [
            {
              "internalType": "uint32",
              "name": "cycleLengthDays",
              "type": "uint32"
            },
            {
              "internalType": "uint32",
              "name": "claimPeriodDays",
              "type": "uint32"
            },
            {
              "internalType": "uint32",
              "name": "minActiveUsers",
              "type": "uint32"
            },
            {
              "internalType": "bool",
              "name": "claimForEnabled",
              "type": "bool"
            },
            {
              "internalType": "uint256",
              "name": "maxClaimAmount",
              "type": "uint256"
            },
            {
              "internalType": "uint32",
              "name": "maxMembers",
              "type": "uint32"
            },
            {
              "internalType": "bool",
              "name": "onlyMembers",
              "type": "bool"
            }
          ],
          "indexed": false,
          "internalType": "struct UBIPool.UBISettings",
          "name": "settings",
          "type": "tuple"
        }
      ],
      "name": "UBISettingsChanged",
      "type": "event"
    },
    {
      "anonymous": false,
      "inputs": [
        {
          "indexed": true,
          "internalType": "address",
          "name": "implementation",
          "type": "address"
        }
      ],
      "name": "Upgraded",
      "type": "event"
    },
    {
      "inputs": [],
      "name": "CFAV1_TYPE",
      "outputs": [
        {
          "internalType": "bytes32",
          "name": "",
          "type": "bytes32"
        }
      ],
      "stateMutability": "view",
      "type": "function"
    },
    {
      "inputs": [],
      "name": "DEFAULT_ADMIN_ROLE",
      "outputs": [
        {
          "internalType": "bytes32",
          "name": "",
          "type": "bytes32"
        }
      ],
      "stateMutability": "view",
      "type": "function"
    },
    {
      "inputs": [],
      "name": "MANAGER_ROLE",
      "outputs": [
        {
          "internalType": "bytes32",
          "name": "",
          "type": "bytes32"
        }
      ],
      "stateMutability": "view",
      "type": "function"
    },
    {
      "inputs": [],
      "name": "MEMBER_ROLE",
      "outputs": [
        {
          "internalType": "bytes32",
          "name": "",
          "type": "bytes32"
        }
      ],
      "stateMutability": "view",
      "type": "function"
    },
    {
      "inputs": [],
      "name": "MIN_FLOW_RATE",
      "outputs": [
        {
          "internalType": "int96",
          "name": "",
          "type": "int96"
        }
      ],
      "stateMutability": "view",
      "type": "function"
    },
    {
      "inputs": [
        {
          "internalType": "address",
          "name": "member",
          "type": "address"
        },
        {
          "internalType": "bytes",
          "name": "extraData",
          "type": "bytes"
        }
      ],
      "name": "addMember",
      "outputs": [
        {
          "internalType": "bool",
          "name": "isMember",
          "type": "bool"
        }
      ],
      "stateMutability": "nonpayable",
      "type": "function"
    },
    {
      "inputs": [
        {
          "internalType": "contract ISuperToken",
          "name": "superToken",
          "type": "address"
        },
        {
          "internalType": "address",
          "name": "",
          "type": "address"
        },
        {
          "internalType": "bytes32",
          "name": "",
          "type": "bytes32"
        },
        {
          "internalType": "bytes",
          "name": "agreementData",
          "type": "bytes"
        },
        {
          "internalType": "bytes",
          "name": "",
          "type": "bytes"
        },
        {
          "internalType": "bytes",
          "name": "ctx",
          "type": "bytes"
        }
      ],
      "name": "afterAgreementCreated",
      "outputs": [
        {
          "internalType": "bytes",
          "name": "newCtx",
          "type": "bytes"
        }
      ],
      "stateMutability": "nonpayable",
      "type": "function"
    },
    {
      "inputs": [
        {
          "internalType": "contract ISuperToken",
          "name": "superToken",
          "type": "address"
        },
        {
          "internalType": "address",
          "name": "agreementClass",
          "type": "address"
        },
        {
          "internalType": "bytes32",
          "name": "",
          "type": "bytes32"
        },
        {
          "internalType": "bytes",
          "name": "agreementData",
          "type": "bytes"
        },
        {
          "internalType": "bytes",
          "name": "cbdata",
          "type": "bytes"
        },
        {
          "internalType": "bytes",
          "name": "ctx",
          "type": "bytes"
        }
      ],
      "name": "afterAgreementTerminated",
      "outputs": [
        {
          "internalType": "bytes",
          "name": "newCtx",
          "type": "bytes"
        }
      ],
      "stateMutability": "nonpayable",
      "type": "function"
    },
    {
      "inputs": [
        {
          "internalType": "contract ISuperToken",
          "name": "superToken",
          "type": "address"
        },
        {
          "internalType": "address",
          "name": "",
          "type": "address"
        },
        {
          "internalType": "bytes32",
          "name": "",
          "type": "bytes32"
        },
        {
          "internalType": "bytes",
          "name": "agreementData",
          "type": "bytes"
        },
        {
          "internalType": "bytes",
          "name": "cbdata",
          "type": "bytes"
        },
        {
          "internalType": "bytes",
          "name": "ctx",
          "type": "bytes"
        }
      ],
      "name": "afterAgreementUpdated",
      "outputs": [
        {
          "internalType": "bytes",
          "name": "newCtx",
          "type": "bytes"
        }
      ],
      "stateMutability": "nonpayable",
      "type": "function"
    },
    {
      "inputs": [
        {
          "internalType": "contract ISuperToken",
          "name": "superToken",
          "type": "address"
        },
        {
          "internalType": "address",
          "name": "agreementClass",
          "type": "address"
        },
        {
          "internalType": "bytes32",
          "name": "",
          "type": "bytes32"
        },
        {
          "internalType": "bytes",
          "name": "",
          "type": "bytes"
        },
        {
          "internalType": "bytes",
          "name": "",
          "type": "bytes"
        }
      ],
      "name": "beforeAgreementCreated",
      "outputs": [
        {
          "internalType": "bytes",
          "name": "",
          "type": "bytes"
        }
      ],
      "stateMutability": "view",
      "type": "function"
    },
    {
      "inputs": [
        {
          "internalType": "contract ISuperToken",
          "name": "superToken",
          "type": "address"
        },
        {
          "internalType": "address",
          "name": "agreementClass",
          "type": "address"
        },
        {
          "internalType": "bytes32",
          "name": "",
          "type": "bytes32"
        },
        {
          "internalType": "bytes",
          "name": "agreementData",
          "type": "bytes"
        },
        {
          "internalType": "bytes",
          "name": "",
          "type": "bytes"
        }
      ],
      "name": "beforeAgreementTerminated",
      "outputs": [
        {
          "internalType": "bytes",
          "name": "",
          "type": "bytes"
        }
      ],
      "stateMutability": "view",
      "type": "function"
    },
    {
      "inputs": [
        {
          "internalType": "contract ISuperToken",
          "name": "superToken",
          "type": "address"
        },
        {
          "internalType": "address",
          "name": "agreementClass",
          "type": "address"
        },
        {
          "internalType": "bytes32",
          "name": "",
          "type": "bytes32"
        },
        {
          "internalType": "bytes",
          "name": "agreementData",
          "type": "bytes"
        },
        {
          "internalType": "bytes",
          "name": "",
          "type": "bytes"
        }
      ],
      "name": "beforeAgreementUpdated",
      "outputs": [
        {
          "internalType": "bytes",
          "name": "",
          "type": "bytes"
        }
      ],
      "stateMutability": "view",
      "type": "function"
    },
    {
      "inputs": [],
      "name": "cfaV1",
      "outputs": [
        {
          "internalType": "contract ISuperfluid",
          "name": "host",
          "type": "address"
        },
        {
          "internalType": "contract IConstantFlowAgreementV1",
          "name": "cfa",
          "type": "address"
        }
      ],
      "stateMutability": "view",
      "type": "function"
    },
    {
      "inputs": [
        {
          "internalType": "address",
          "name": "_member",
          "type": "address"
        }
      ],
      "name": "checkEntitlement",
      "outputs": [
        {
          "internalType": "uint256",
          "name": "",
          "type": "uint256"
        }
      ],
      "stateMutability": "view",
      "type": "function"
    },
    {
      "inputs": [],
      "name": "checkEntitlement",
      "outputs": [
        {
          "internalType": "uint256",
          "name": "",
          "type": "uint256"
        }
      ],
      "stateMutability": "view",
      "type": "function"
    },
    {
      "inputs": [],
      "name": "claim",
      "outputs": [],
      "stateMutability": "nonpayable",
      "type": "function"
    },
    {
      "inputs": [
        {
          "internalType": "address",
          "name": "claimer",
          "type": "address"
        },
        {
          "internalType": "bool",
          "name": "sendToWhitelistedRoot",
          "type": "bool"
        }
      ],
      "name": "claimFor",
      "outputs": [],
      "stateMutability": "nonpayable",
      "type": "function"
    },
    {
      "inputs": [],
      "name": "currentDayInCycle",
      "outputs": [
        {
          "internalType": "uint256",
          "name": "",
          "type": "uint256"
        }
      ],
      "stateMutability": "view",
      "type": "function"
    },
    {
      "inputs": [],
      "name": "distributionFormula",
      "outputs": [
        {
          "internalType": "uint256",
          "name": "",
          "type": "uint256"
        }
      ],
      "stateMutability": "nonpayable",
      "type": "function"
    },
    {
      "inputs": [],
      "name": "estimateNextDailyUBI",
      "outputs": [
        {
          "internalType": "uint256",
          "name": "nextDailyUbi",
          "type": "uint256"
        }
      ],
      "stateMutability": "view",
      "type": "function"
    },
    {
      "inputs": [],
      "name": "extendedSettings",
      "outputs": [
        {
          "internalType": "uint32",
          "name": "maxPeriodClaimers",
          "type": "uint32"
        },
        {
          "internalType": "uint256",
          "name": "minClaimAmount",
          "type": "uint256"
        },
        {
          "internalType": "uint32",
          "name": "managerFeeBps",
          "type": "uint32"
        }
      ],
      "stateMutability": "view",
      "type": "function"
    },
    {
      "inputs": [],
      "name": "getCurrentDay",
      "outputs": [
        {
          "internalType": "uint256",
          "name": "",
          "type": "uint256"
        }
      ],
      "stateMutability": "view",
      "type": "function"
    },
    {
      "inputs": [],
      "name": "getManagerFee",
      "outputs": [
        {
          "internalType": "address",
          "name": "feeRecipient",
          "type": "address"
        },
        {
          "internalType": "uint32",
          "name": "feeBps",
          "type": "uint32"
        }
      ],
      "stateMutability": "view",
      "type": "function"
    },
    {
      "inputs": [
        {
          "internalType": "address",
          "name": "_user",
          "type": "address"
        }
      ],
      "name": "getRealtimeContribution",
      "outputs": [
        {
          "internalType": "uint256",
          "name": "",
          "type": "uint256"
        }
      ],
      "stateMutability": "view",
      "type": "function"
    },
    {
      "inputs": [],
      "name": "getRealtimeStats",
      "outputs": [
        {
          "internalType": "uint256",
          "name": "netIncome",
          "type": "uint256"
        },
        {
          "internalType": "uint256",
          "name": "totalFees",
          "type": "uint256"
        },
        {
          "internalType": "uint256",
          "name": "protocolFees",
          "type": "uint256"
        },
        {
          "internalType": "uint256",
          "name": "managerFees",
          "type": "uint256"
        },
        {
          "internalType": "int96",
          "name": "incomeFlowRate",
          "type": "int96"
        },
        {
          "internalType": "int96",
          "name": "feeRate",
          "type": "int96"
        },
        {
          "internalType": "int96",
          "name": "managerFeeRate",
          "type": "int96"
        }
      ],
      "stateMutability": "view",
      "type": "function"
    },
    {
      "inputs": [],
      "name": "getRegistry",
      "outputs": [
        {
          "internalType": "contract IRegistry",
          "name": "",
          "type": "address"
        }
      ],
      "stateMutability": "view",
      "type": "function"
    },
    {
      "inputs": [
        {
          "internalType": "bytes32",
          "name": "role",
          "type": "bytes32"
        }
      ],
      "name": "getRoleAdmin",
      "outputs": [
        {
          "internalType": "bytes32",
          "name": "",
          "type": "bytes32"
        }
      ],
      "stateMutability": "view",
      "type": "function"
    },
    {
      "inputs": [
        {
          "internalType": "bytes32",
          "name": "role",
          "type": "bytes32"
        },
        {
          "internalType": "address",
          "name": "account",
          "type": "address"
        }
      ],
      "name": "grantRole",
      "outputs": [],
      "stateMutability": "nonpayable",
      "type": "function"
    },
    {
      "inputs": [
        {
          "components": [
            {
              "internalType": "address",
              "name": "swapFrom",
              "type": "address"
            },
            {
              "internalType": "uint256",
              "name": "amount",
              "type": "uint256"
            },
            {
              "internalType": "uint256",
              "name": "minReturn",
              "type": "uint256"
            },
            {
              "internalType": "uint256",
              "name": "deadline",
              "type": "uint256"
            },
            {
              "internalType": "bytes",
              "name": "path",
              "type": "bytes"
            }
          ],
          "internalType": "struct HelperLibrary.SwapData",
          "name": "_customData",
          "type": "tuple"
        },
        {
          "internalType": "address",
          "name": "_sender",
          "type": "address"
        },
        {
          "internalType": "bytes",
          "name": "_ctx",
          "type": "bytes"
        }
      ],
      "name": "handleSwap",
      "outputs": [
        {
          "internalType": "bytes",
          "name": "",
          "type": "bytes"
        }
      ],
      "stateMutability": "nonpayable",
      "type": "function"
    },
    {
      "inputs": [
        {
          "internalType": "address",
          "name": "_member",
          "type": "address"
        }
      ],
      "name": "hasClaimed",
      "outputs": [
        {
          "internalType": "bool",
          "name": "",
          "type": "bool"
        }
      ],
      "stateMutability": "view",
      "type": "function"
    },
    {
      "inputs": [
        {
          "internalType": "bytes32",
          "name": "role",
          "type": "bytes32"
        },
        {
          "internalType": "address",
          "name": "account",
          "type": "address"
        }
      ],
      "name": "hasRole",
      "outputs": [
        {
          "internalType": "bool",
          "name": "",
          "type": "bool"
        }
      ],
      "stateMutability": "view",
      "type": "function"
    },
    {
      "inputs": [],
      "name": "host",
      "outputs": [
        {
          "internalType": "contract ISuperfluid",
          "name": "",
          "type": "address"
        }
      ],
      "stateMutability": "view",
      "type": "function"
    },
    {
      "inputs": [
        {
          "components": [
            {
              "internalType": "address",
              "name": "manager",
              "type": "address"
            },
            {
              "internalType": "contract IMembersValidator",
              "name": "membersValidator",
              "type": "address"
            },
            {
              "internalType": "contract IIdentityV2",
              "name": "uniquenessValidator",
              "type": "address"
            },
            {
              "internalType": "contract IERC20Upgradeable",
              "name": "rewardToken",
              "type": "address"
            }
          ],
          "internalType": "struct PoolSettings",
          "name": "_settings",
          "type": "tuple"
        },
        {
          "components": [
            {
              "internalType": "uint32",
              "name": "cycleLengthDays",
              "type": "uint32"
            },
            {
              "internalType": "uint32",
              "name": "claimPeriodDays",
              "type": "uint32"
            },
            {
              "internalType": "uint32",
              "name": "minActiveUsers",
              "type": "uint32"
            },
            {
              "internalType": "bool",
              "name": "claimForEnabled",
              "type": "bool"
            },
            {
              "internalType": "uint256",
              "name": "maxClaimAmount",
              "type": "uint256"
            },
            {
              "internalType": "uint32",
              "name": "maxMembers",
              "type": "uint32"
            },
            {
              "internalType": "bool",
              "name": "onlyMembers",
              "type": "bool"
            }
          ],
          "internalType": "struct UBIPool.UBISettings",
          "name": "_ubiSettings",
          "type": "tuple"
        },
        {
          "components": [
            {
              "internalType": "uint32",
              "name": "maxPeriodClaimers",
              "type": "uint32"
            },
            {
              "internalType": "uint256",
              "name": "minClaimAmount",
              "type": "uint256"
            },
            {
              "internalType": "uint32",
              "name": "managerFeeBps",
              "type": "uint32"
            }
          ],
          "internalType": "struct UBIPool.ExtendedSettings",
          "name": "_extendedSettings",
          "type": "tuple"
        },
        {
          "internalType": "contract UBIPoolFactory",
          "name": "_registry",
          "type": "address"
        }
      ],
      "name": "initialize",
      "outputs": [],
      "stateMutability": "nonpayable",
      "type": "function"
    },
    {
      "inputs": [
        {
          "internalType": "contract ISuperToken",
          "name": "_superToken",
          "type": "address"
        }
      ],
      "name": "isAcceptedSuperToken",
      "outputs": [
        {
          "internalType": "bool",
          "name": "",
          "type": "bool"
        }
      ],
      "stateMutability": "view",
      "type": "function"
    },
    {
      "inputs": [],
      "name": "nextClaimTime",
      "outputs": [
        {
          "internalType": "uint256",
          "name": "",
          "type": "uint256"
        }
      ],
      "stateMutability": "view",
      "type": "function"
    },
    {
      "inputs": [
        {
          "internalType": "address",
          "name": "_sender",
          "type": "address"
        },
        {
          "internalType": "uint256",
          "name": "_amount",
          "type": "uint256"
        },
        {
          "internalType": "bytes",
          "name": "",
          "type": "bytes"
        }
      ],
      "name": "onTokenTransfer",
      "outputs": [
        {
          "internalType": "bool",
          "name": "",
          "type": "bool"
        }
      ],
      "stateMutability": "nonpayable",
      "type": "function"
    },
    {
      "inputs": [],
      "name": "proxiableUUID",
      "outputs": [
        {
          "internalType": "bytes32",
          "name": "",
          "type": "bytes32"
        }
      ],
      "stateMutability": "view",
      "type": "function"
    },
    {
      "inputs": [],
      "name": "registry",
      "outputs": [
        {
          "internalType": "contract UBIPoolFactory",
          "name": "",
          "type": "address"
        }
      ],
      "stateMutability": "view",
      "type": "function"
    },
    {
      "inputs": [
        {
          "internalType": "address",
          "name": "member",
          "type": "address"
        }
      ],
      "name": "removeMember",
      "outputs": [],
      "stateMutability": "nonpayable",
      "type": "function"
    },
    {
      "inputs": [
        {
          "internalType": "bytes32",
          "name": "role",
          "type": "bytes32"
        },
        {
          "internalType": "address",
          "name": "account",
          "type": "address"
        }
      ],
      "name": "renounceRole",
      "outputs": [],
      "stateMutability": "nonpayable",
      "type": "function"
    },
    {
      "inputs": [
        {
          "internalType": "bytes32",
          "name": "role",
          "type": "bytes32"
        },
        {
          "internalType": "address",
          "name": "account",
          "type": "address"
        }
      ],
      "name": "revokeRole",
      "outputs": [],
      "stateMutability": "nonpayable",
      "type": "function"
    },
    {
      "inputs": [
        {
          "components": [
            {
              "internalType": "address",
              "name": "manager",
              "type": "address"
            },
            {
              "internalType": "contract IMembersValidator",
              "name": "membersValidator",
              "type": "address"
            },
            {
              "internalType": "contract IIdentityV2",
              "name": "uniquenessValidator",
              "type": "address"
            },
            {
              "internalType": "contract IERC20Upgradeable",
              "name": "rewardToken",
              "type": "address"
            }
          ],
          "internalType": "struct PoolSettings",
          "name": "_settings",
          "type": "tuple"
        }
      ],
      "name": "setPoolSettings",
      "outputs": [],
      "stateMutability": "nonpayable",
      "type": "function"
    },
    {
      "inputs": [
        {
          "components": [
            {
              "internalType": "uint32",
              "name": "cycleLengthDays",
              "type": "uint32"
            },
            {
              "internalType": "uint32",
              "name": "claimPeriodDays",
              "type": "uint32"
            },
            {
              "internalType": "uint32",
              "name": "minActiveUsers",
              "type": "uint32"
            },
            {
              "internalType": "bool",
              "name": "claimForEnabled",
              "type": "bool"
            },
            {
              "internalType": "uint256",
              "name": "maxClaimAmount",
              "type": "uint256"
            },
            {
              "internalType": "uint32",
              "name": "maxMembers",
              "type": "uint32"
            },
            {
              "internalType": "bool",
              "name": "onlyMembers",
              "type": "bool"
            }
          ],
          "internalType": "struct UBIPool.UBISettings",
          "name": "_ubiSettings",
          "type": "tuple"
        },
        {
          "components": [
            {
              "internalType": "uint32",
              "name": "maxPeriodClaimers",
              "type": "uint32"
            },
            {
              "internalType": "uint256",
              "name": "minClaimAmount",
              "type": "uint256"
            },
            {
              "internalType": "uint32",
              "name": "managerFeeBps",
              "type": "uint32"
            }
          ],
          "internalType": "struct UBIPool.ExtendedSettings",
          "name": "_extendedSettings",
          "type": "tuple"
        }
      ],
      "name": "setUBISettings",
      "outputs": [],
      "stateMutability": "nonpayable",
      "type": "function"
    },
    {
      "inputs": [],
      "name": "settings",
      "outputs": [
        {
          "internalType": "address",
          "name": "manager",
          "type": "address"
        },
        {
          "internalType": "contract IMembersValidator",
          "name": "membersValidator",
          "type": "address"
        },
        {
          "internalType": "contract IIdentityV2",
          "name": "uniquenessValidator",
          "type": "address"
        },
        {
          "internalType": "contract IERC20Upgradeable",
          "name": "rewardToken",
          "type": "address"
        }
      ],
      "stateMutability": "view",
      "type": "function"
    },
    {
      "inputs": [],
      "name": "stats",
      "outputs": [
        {
          "internalType": "uint256",
          "name": "netIncome",
          "type": "uint256"
        },
        {
          "internalType": "uint256",
          "name": "totalFees",
          "type": "uint256"
        },
        {
          "internalType": "uint256",
          "name": "lastUpdate",
          "type": "uint256"
        },
        {
          "internalType": "address",
          "name": "lastFeeRecipient",
          "type": "address"
        },
        {
          "internalType": "int96",
          "name": "lastIncomeRate",
          "type": "int96"
        },
        {
          "internalType": "address",
          "name": "lastManagerFeeRecipient",
          "type": "address"
        },
        {
          "internalType": "uint256",
          "name": "protocolFees",
          "type": "uint256"
        },
        {
          "internalType": "uint256",
          "name": "managerFees",
          "type": "uint256"
        }
      ],
      "stateMutability": "view",
      "type": "function"
    },
    {
      "inputs": [],
      "name": "status",
      "outputs": [
        {
          "internalType": "uint256",
          "name": "currentDay",
          "type": "uint256"
        },
        {
          "internalType": "uint256",
          "name": "dailyUbi",
          "type": "uint256"
        },
        {
          "internalType": "uint256",
          "name": "dailyCyclePool",
          "type": "uint256"
        },
        {
          "internalType": "uint256",
          "name": "startOfCycle",
          "type": "uint256"
        },
        {
          "internalType": "uint256",
          "name": "currentCycleLength",
          "type": "uint256"
        },
        {
          "internalType": "uint256",
          "name": "periodClaimers",
          "type": "uint256"
        },
        {
          "internalType": "uint256",
          "name": "periodDistributed",
          "type": "uint256"
        },
        {
          "internalType": "uint32",
          "name": "membersCount",
          "type": "uint32"
        }
      ],
      "stateMutability": "view",
      "type": "function"
    },
    {
      "inputs": [],
      "name": "superToken",
      "outputs": [
        {
          "internalType": "contract ISuperToken",
          "name": "",
          "type": "address"
        }
      ],
      "stateMutability": "view",
      "type": "function"
    },
    {
      "inputs": [
        {
          "internalType": "address",
          "name": "_sender",
          "type": "address"
        },
        {
          "internalType": "uint256",
          "name": "_amount",
          "type": "uint256"
        },
        {
          "internalType": "bytes",
          "name": "_ctx",
          "type": "bytes"
        }
      ],
      "name": "support",
      "outputs": [
        {
          "internalType": "bytes",
          "name": "",
          "type": "bytes"
        }
      ],
      "stateMutability": "nonpayable",
      "type": "function"
    },
    {
      "inputs": [
        {
          "internalType": "address",
          "name": "_sender",
          "type": "address"
        },
        {
          "components": [
            {
              "internalType": "address",
              "name": "swapFrom",
              "type": "address"
            },
            {
              "internalType": "uint256",
              "name": "amount",
              "type": "uint256"
            },
            {
              "internalType": "uint256",
              "name": "minReturn",
              "type": "uint256"
            },
            {
              "internalType": "uint256",
              "name": "deadline",
              "type": "uint256"
            },
            {
              "internalType": "bytes",
              "name": "path",
              "type": "bytes"
            }
          ],
          "internalType": "struct HelperLibrary.SwapData",
          "name": "_customData",
          "type": "tuple"
        },
        {
          "internalType": "bytes",
          "name": "_ctx",
          "type": "bytes"
        }
      ],
      "name": "supportWithSwap",
      "outputs": [
        {
          "internalType": "bytes",
          "name": "",
          "type": "bytes"
        }
      ],
      "stateMutability": "nonpayable",
      "type": "function"
    },
    {
      "inputs": [
        {
          "internalType": "address",
          "name": "",
          "type": "address"
        }
      ],
      "name": "supporters",
      "outputs": [
        {
          "internalType": "uint256",
          "name": "contribution",
          "type": "uint256"
        },
        {
          "internalType": "int96",
          "name": "flowRate",
          "type": "int96"
        },
        {
          "internalType": "uint128",
          "name": "lastUpdated",
          "type": "uint128"
        }
      ],
      "stateMutability": "view",
      "type": "function"
    },
    {
      "inputs": [
        {
          "internalType": "bytes4",
          "name": "interfaceId",
          "type": "bytes4"
        }
      ],
      "name": "supportsInterface",
      "outputs": [
        {
          "internalType": "bool",
          "name": "",
          "type": "bool"
        }
      ],
      "stateMutability": "view",
      "type": "function"
    },
    {
      "inputs": [],
      "name": "swapRouter",
      "outputs": [
        {
          "internalType": "contract IV3SwapRouter",
          "name": "",
          "type": "address"
        }
      ],
      "stateMutability": "view",
      "type": "function"
    },
    {
      "inputs": [],
      "name": "ubiSettings",
      "outputs": [
        {
          "internalType": "uint32",
          "name": "cycleLengthDays",
          "type": "uint32"
        },
        {
          "internalType": "uint32",
          "name": "claimPeriodDays",
          "type": "uint32"
        },
        {
          "internalType": "uint32",
          "name": "minActiveUsers",
          "type": "uint32"
        },
        {
          "internalType": "bool",
          "name": "claimForEnabled",
          "type": "bool"
        },
        {
          "internalType": "uint256",
          "name": "maxClaimAmount",
          "type": "uint256"
        },
        {
          "internalType": "uint32",
          "name": "maxMembers",
          "type": "uint32"
        },
        {
          "internalType": "bool",
          "name": "onlyMembers",
          "type": "bool"
        }
      ],
      "stateMutability": "view",
      "type": "function"
    },
    {
      "inputs": [
        {
          "internalType": "address",
          "name": "newImplementation",
          "type": "address"
        }
      ],
      "name": "upgradeTo",
      "outputs": [],
      "stateMutability": "nonpayable",
      "type": "function"
    },
    {
      "inputs": [
        {
          "internalType": "address",
          "name": "newImplementation",
          "type": "address"
        },
        {
          "internalType": "bytes",
          "name": "data",
          "type": "bytes"
        }
      ],
      "name": "upgradeToAndCall",
      "outputs": [],
      "stateMutability": "payable",
      "type": "function"
    },
    {
      "inputs": [
        {
          "internalType": "bytes",
          "name": "data",
          "type": "bytes"
        }
      ],
      "name": "upgradeToLatest",
      "outputs": [],
      "stateMutability": "payable",
      "type": "function"
    }
  ],
  "transactionHash": "0x62c5de62f139c07d48e34e2976520c9fb786c0277325fcb0a4d3c72eef48c64f",
  "args": [
    "0xA4Ff07cF81C02CFD356184879D953970cA957585",
    "0x5615CDAb10dc425a742d643d949a7F474C01abc4"
  ],
  "numDeployments": 26,
  "solcInputHash": "f535b035beebf5cf7122547758fcd0bb",
  "bytecode": "0x60e06040523060c0523480156200001557600080fd5b506040516200568338038062005683833981016040819052620000389162000098565b6001600160a01b038216608081905282908290620000695760405163538ba4f960e01b815260040160405180910390fd5b6001600160a01b031660a05250620000d7915050565b6001600160a01b03811681146200009557600080fd5b50565b60008060408385031215620000ac57600080fd5b8251620000b9816200007f565b6020840151909250620000cc816200007f565b809150509250929050565b60805160a05160c0516155136200017060003960008181611106015281816111460152818161149e015281816114de015261155601526000818161097a01528181610e8201526123f8015260008181610bc801528181610e0401528181610fcc01528181611604015281816119de01528181611f070152818161204f0152818161230e01528181612a610152612d9901526155136000f3fe60806040526004361061027b5760003560e01c806301ffc9a7146102805780630b1ca49a146102b55780630c710776146102d75780630ce82d67146103035780630e0cc1b91461032657806319805538146103465780631a2a84b31461037f5780631a787f2e1461039f5780631db128c7146103bf578063200d2ed2146103ec578063230dbd291461046e578063248a9ca31461048e578063298052df146104ae5780632b4116f7146104c35780632f2ff15d146104f057806330d9c9151461051057806336568abe146105305780633659cfe6146105505780633e6968b61461057057806346b6a742146105855780634e71d92d146105a55780634f1ef286146105ba57806352d1902d146105cd57806353c11f99146105e2578063598f8fbf146106025780635a4c5152146106225780635ab1bd53146106b95780635da93292146106ce5780635f9e7d77146106e35780636180c79314610703578063647c75e21461072357806372ca8a3e1461079457806373b2e80e146107b4578063791ea89b146107d45780637b103999146107f457806388480f0c14610815578063884d1f401461086757806391d148541461088757806398d6621b146108a75780639f8fddd2146108bc578063a10f469e146108dc578063a217fddf146108fe578063a4c0ed3614610913578063ae82720014610933578063bcb4546f14610946578063c31c9c0714610968578063c77138701461099c578063d3112b2e146109b1578063d547741f146109e6578063d80528ae14610a06578063d86ed3e514610a97578063dc61d5c214610ab7578063def482a414610b0a578063e06174e414610b2a578063ec87621c14610b94578063f437bc5914610bb6575b600080fd5b34801561028c57600080fd5b506102a061029b36600461449c565b610bea565b60405190151581526020015b60405180910390f35b3480156102c157600080fd5b506102d56102d03660046144db565b610c21565b005b3480156102e357600080fd5b506102f06459df64940081565b604051600b9190910b81526020016102ac565b34801561030f57600080fd5b50610318610c55565b6040519081526020016102ac565b34801561033257600080fd5b506102d5610341366004614516565b610c73565b34801561035257600080fd5b5061035b610ca8565b604080516001600160a01b03909316835263ffffffff9091166020830152016102ac565b34801561038b57600080fd5b5061031861039a3660046144db565b610cc7565b3480156103ab57600080fd5b506103186103ba3660046144db565b610d67565b3480156103cb57600080fd5b506103df6103da3660046146b7565b610de2565b6040516102ac919061477e565b3480156103f857600080fd5b5061013a5461013b5461013c5461013d5461013e5461013f54610140546101425461042d979695949392919063ffffffff1688565b604080519889526020890197909752958701949094526060860192909252608085015260a084015260c083015263ffffffff1660e0820152610100016102ac565b34801561047a57600080fd5b506103df6104893660046147d9565b610f03565b34801561049a57600080fd5b506103186104a93660046148a3565b610f4a565b3480156104ba57600080fd5b50610318610f5f565b3480156104cf57600080fd5b506097546104e3906001600160a01b031681565b6040516102ac91906148bc565b3480156104fc57600080fd5b506102d561050b3660046148d0565b610f9e565b34801561051c57600080fd5b506103df61052b3660046148f5565b610fbf565b34801561053c57600080fd5b506102d561054b3660046148d0565b611082565b34801561055c57600080fd5b506102d561056b3660046144db565b6110fc565b34801561057c57600080fd5b506103186111c4565b34801561059157600080fd5b506102d56105a0366004614b57565b6111e0565b3480156105b157600080fd5b506102d5611487565b6102d56105c8366004614bb3565b611494565b3480156105d957600080fd5b50610318611549565b3480156105ee57600080fd5b506103df6105fd3660046147d9565b6115f7565b34801561060e57600080fd5b506102d561061d366004614c02565b6116d4565b34801561062e57600080fd5b506101375461013854610139546106749263ffffffff80821693600160201b808404831694600160401b850484169460ff600160601b9091048116948216929091041687565b6040805163ffffffff98891681529688166020880152948716948601949094529115156060850152608084015290921660a082015290151560c082015260e0016102ac565b3480156106c557600080fd5b506104e3611809565b3480156106da57600080fd5b50610318611819565b3480156106ef57600080fd5b506103df6106fe3660046148f5565b6119d1565b34801561070f57600080fd5b506102a061071e366004614bb3565b611ab6565b34801561072f57600080fd5b5061076d61073e3660046144db565b60986020526000908152604090208054600190910154600b81900b90600160601b90046001600160801b031683565b60408051938452600b9290920b60208401526001600160801b0316908201526060016102ac565b3480156107a057600080fd5b506102a06107af3660046144db565b611cb3565b3480156107c057600080fd5b506102a06107cf3660046144db565b611cc7565b3480156107e057600080fd5b506102d56107ef366004614c1e565b611d6a565b34801561080057600080fd5b50610143546104e3906001600160a01b031681565b34801561082157600080fd5b506101445461014554610146546108409263ffffffff90811692911683565b6040805163ffffffff948516815260208101939093529216918101919091526060016102ac565b34801561087357600080fd5b506103df6108823660046148f5565b611efa565b34801561089357600080fd5b506102a06108a23660046148d0565b611ff7565b3480156108b357600080fd5b50610318612022565b3480156108c857600080fd5b506103df6108d7366004614c54565b61202d565b3480156108e857600080fd5b506103186000805160206154be83398151915281565b34801561090a57600080fd5b50610318600081565b34801561091f57600080fd5b506102a061092e366004614ca2565b6120e7565b6102d5610941366004614cfd565b612160565b34801561095257600080fd5b5061031860008051602061541783398151915281565b34801561097457600080fd5b506104e37f000000000000000000000000000000000000000000000000000000000000000081565b3480156109a857600080fd5b506103186121e6565b3480156109bd57600080fd5b50609954609a546109d8916001600160a01b03908116911682565b6040516102ac929190614d31565b3480156109f257600080fd5b506102d5610a013660046148d0565b6121f7565b348015610a1257600080fd5b50609b54609c54609d54609e54609f5460a05460a154610a4d969594936001600160a01b0380821694600160a01b909204600b0b9391169188565b604080519889526020890197909752958701949094526001600160a01b039283166060870152600b9190910b60808601521660a084015260c083015260e0820152610100016102ac565b348015610aa357600080fd5b506103df610ab23660046147d9565b612213565b348015610ac357600080fd5b50610acc612241565b604080519788526020880196909652948601939093526060850191909152600b90810b608085015290810b60a08401520b60c082015260e0016102ac565b348015610b1657600080fd5b506103df610b25366004614d4b565b6122ec565b348015610b3657600080fd5b5061013354610134546101355461013654610b61936001600160a01b03908116938116928116911684565b604080516001600160a01b03958616815293851660208501529184169183019190915290911660608201526080016102ac565b348015610ba057600080fd5b5061031860008051602061547783398151915281565b348015610bc257600080fd5b506104e37f000000000000000000000000000000000000000000000000000000000000000081565b60006001600160e01b03198216637965db0b60e01b1480610c1b57506301ffc9a760e01b6001600160e01b03198316145b92915050565b600080516020615477833981519152610c398161253f565b610c516000805160206154be83398151915283612549565b5050565b61013d54600090610c646111c4565b610c6e9190614dbf565b905090565b61013754600160601b900460ff16610c9e576040516369973f2560e11b815260040160405180910390fd5b610c518282612629565b61013354610146546001600160a01b039091169163ffffffff90911690565b6001600160a01b0381166000908152609860209081526040808320815160608101835281548152600190910154600b81900b938201849052600160601b90046001600160801b031691810191909152908203610d24575192915050565b6040810151610d3c906001600160801b031642614dbf565b81602001516001600160601b0316610d549190614dd2565b8151610d609190614de9565b9392505050565b6000610d716111c4565b61013a54148015610d84575061013b5415155b15610dda576101445463ffffffff1615801590610daf57506101445461013f5463ffffffff90911611155b15610dbc57506000919050565b610dc582611cc7565b610dd25761013b54610c1b565b600092915050565b610c1b6121e6565b606082336001600160a01b03821614801590610e275750336001600160a01b037f00000000000000000000000000000000000000000000000000000000000000001614155b15610e50573360405163087231bf60e31b8152600401610e4791906148bc565b60405180910390fd5b6097546040516358c0dacb60e01b81527385608a0f804D0a9A72C022c812125AA25fA5B9bf916358c0dacb91610eb8917f0000000000000000000000000000000000000000000000000000000000000000918a916001600160a01b0316908a90600401614e41565b602060405180830381865af4158015610ed5573d6000803e3d6000fd5b505050506040513d601f19601f82011682018060405250810190610ef99190614e7c565b5091949350505050565b60606000610f1387890189614e95565b509050600080610f2587890189614ed2565b91509150610f378d8484848a8a6128ce565b93505050505b9998505050505050505050565b60009081526065602052604090206001015490565b61013754600090600160201b900463ffffffff16610f7b6111c4565b610f859190614de9565b610f929062015180614dd2565b610c6e9061a8c0614de9565b610fa782610f4a565b610fb08161253f565b610fba8383612915565b505050565b6060336001600160a01b037f0000000000000000000000000000000000000000000000000000000000000000161461100a57604051632f2d36a760e01b815260040160405180910390fd5b61101387612a3b565b6110365750604080518082019091526002815261060f60f31b6020820152611077565b61103f88611cb3565b61105c57604051631ea25bab60e31b815260040160405180910390fd5b50604080518082019091526002815261060f60f31b60208201525b979650505050505050565b6001600160a01b03811633146110f25760405162461bcd60e51b815260206004820152602f60248201527f416363657373436f6e74726f6c3a2063616e206f6e6c792072656e6f756e636560448201526e103937b632b9903337b91039b2b63360891b6064820152608401610e47565b610c518282612549565b6001600160a01b037f00000000000000000000000000000000000000000000000000000000000000001630036111445760405162461bcd60e51b8152600401610e4790614efe565b7f00000000000000000000000000000000000000000000000000000000000000006001600160a01b0316611176612aef565b6001600160a01b03161461119c5760405162461bcd60e51b8152600401610e4790614f38565b6111a581612b0b565b604080516000808252602082019092526111c191839190612b16565b50565b6000620151806111d661a8c042614dbf565b610c6e9190614f72565b600054610100900460ff16158080156112005750600054600160ff909116105b80611221575061120f30612c81565b158015611221575060005460ff166001145b6112845760405162461bcd60e51b815260206004820152602e60248201527f496e697469616c697a61626c653a20636f6e747261637420697320616c72656160448201526d191e481a5b9a5d1a585b1a5e995960921b6064820152608401610e47565b6000805460ff1916600117905580156112a7576000805461ff0019166101001790555b61014380546001600160a01b03199081166001600160a01b038581169190911790925586516101338054831691841691909117905560208088015161013480548416918516919091179055604080890151610135805485169186169190911790556060808a0151610136805490951695169490941790925586516101378054898401518a860151968b015163ffffffff9485166001600160401b031990931692909217600160201b91851682021764ffffffffff60401b1916600160401b9785169790970260ff60601b191696909617600160601b9115159190910217905560808801516101385560a0880151610139805460c08b015192841664ffffffffff1990911617911515909502179093558551610144805463ffffffff19908116928616929092179055908601516101455590850151610146805490921692169190911790556113f485612c90565b6113fd84612ce6565b611408600033612d3d565b6114246000805160206154778339815191528660000151612d3d565b6101365461143a906001600160a01b0316612d47565b8015611480576000805461ff0019169055604051600181527f7f26b83ff96e1f2b6a682f133852f6798a09c465da95921460cefb38474024989060200160405180910390a15b5050505050565b611492336001612629565b565b6001600160a01b037f00000000000000000000000000000000000000000000000000000000000000001630036114dc5760405162461bcd60e51b8152600401610e4790614efe565b7f00000000000000000000000000000000000000000000000000000000000000006001600160a01b031661150e612aef565b6001600160a01b0316146115345760405162461bcd60e51b8152600401610e4790614f38565b61153d82612b0b565b610c5182826001612b16565b6000306001600160a01b037f000000000000000000000000000000000000000000000000000000000000000016146115e45760405162461bcd60e51b815260206004820152603860248201527f555550535570677261646561626c653a206d757374206e6f742062652063616c6044820152771b1959081d1a1c9bdd59da0819195b1959d85d1958d85b1b60421b6064820152608401610e47565b5060008051602061545783398151915290565b6060336001600160a01b037f000000000000000000000000000000000000000000000000000000000000000016141580611637575061163589612a3b565b155b8061164857506116468a611cb3565b155b1561168c5782828080601f016020809104026020016040519081016040528093929190818152602001838380828437600092019190915250929350610f3d92505050565b60008061169b888a018a614e95565b90925090506000806116af888a018a614f94565b915091506116c28e858584868c8c612e6c565b9e9d5050505050505050505050505050565b6000805160206154778339815191526116ec8161253f565b6116f582612c90565b6101335482516001600160a01b0390811691161461174f576101335461173390600080516020615477833981519152906001600160a01b0316612549565b61174f6000805160206154778339815191528360000151612d3d565b815161013380546001600160a01b03199081166001600160a01b03938416908117909255602080860180516101348054851691871691909117905560408088018051610135805487169189169190911790556060808a0180516101368054909816908a161790965582519687529251871693860193909352915185168483015291519093169082015290517fc5e56c36231b7247b96ddd6a7e47b60748a332bcb3a514d016fd2e74d9159351916080908290030190a15050565b610143546001600160a01b031690565b6000806118246111c4565b6101375461013a5491925061184791600160201b90910463ffffffff1690614de9565b81106119c857600080600061185a612ebf565b925092509250801561194357610136546040516370a0823160e01b81526000916001600160a01b0316906370a08231906118989030906004016148bc565b602060405180830381865afa1580156118b5573d6000803e3d6000fd5b505050506040513d601f19601f820116820180604052508101906118d99190614e7c565b61013c8590556101375463ffffffff1661013e81905561013d879055604080518881526020810184905290810191909152606081018690529091507f83e0d535b9e84324e0a25922406398d6ff5f96d0c686204ee490e16d7670566f9060800160405180910390a1505b61013a84905561013b82905561014554821161196057600061013b555b61013b5461013f5461014054604080518881526020810194909452438482015260608401929092526080830152517fdd2b882b89647cd6c5641ce6ab9d46f1c17865d2b22f065850f30f83cc7d8cf89181900360a00190a15050600061013f81905561014055505b505061013b5490565b6060336001600160a01b037f000000000000000000000000000000000000000000000000000000000000000016141580611a115750611a0f87612a3b565b155b80611a225750611a2088611cb3565b155b15611a465750604080518082019091526002815261060f60f31b6020820152611077565b600080611a5586880188614e95565b9092509050600080611a716001600160a01b038d168585613071565b5050915091508181604051602001611a96929190918252600b0b602082015260400190565b604051602081830303815290604052945050505050979650505050505050565b610135546000906001600160a01b031615611b6b57610135546040516316874da360e11b81526000916001600160a01b031690632d0e9b4690611afd9087906004016148bc565b602060405180830381865afa158015611b1a573d6000803e3d6000fd5b505050506040513d601f19601f82011682018060405250810190611b3e9190614fb9565b90506001600160a01b038116611b695783604051630b7b234960e01b8152600401610e4791906148bc565b505b610134546001600160a01b031615801590611b9b5750611b9960008051602061547783398151915233611ff7565b155b15611c4357610134546040516356a42afd60e11b81526001600160a01b039091169063ad4855fa90611bd7903090339088908890600401614fd6565b6020604051808303816000875af1158015611bf6573d6000803e3d6000fd5b505050506040513d601f19601f82011682018060405250810190611c1a9190615014565b1515600003611c3e578260405163130f4a3760e11b8152600401610e4791906148bc565b611c92565b61013954600160201b900460ff168015611c725750611c7060008051602061547783398151915233611ff7565b155b15611c925782604051636f6acad560e01b8152600401610e4791906148bc565b611caa6000805160206154be83398151915284612915565b50600192915050565b6097546001600160a01b0390811691161490565b610135546040516316874da360e11b815260009182916001600160a01b0390911690632d0e9b4690611cfd9086906004016148bc565b602060405180830381865afa158015611d1a573d6000803e3d6000fd5b505050506040513d601f19601f82011682018060405250810190611d3e9190614fb9565b9050611d486111c4565b6001600160a01b03909116600090815261014160205260409020541492915050565b600080516020615477833981519152611d828161253f565b611d8b83612ce6565b8251610137805460208087015160408089015160608a01511515600160601b0260ff60601b1963ffffffff928316600160401b021664ffffffffff60401b19948316600160201b9081026001600160401b0319909816998416999099179690961793909316949094179190911790935560808701516101385560a0870151610139805460c08a0151151590960264ffffffffff1990961691841691909117949094179093558451610144805491831663ffffffff19928316179055928501516101455584820151610146805491909216931692909217909155517f9c2d0f3e240667c2b704104ff988af37be9eb4befb81fe00424626b088ee757990611eed908590600060e08201905063ffffffff808451168352806020850151166020840152806040850151166040840152606084015115156060840152608084015160808401528060a08501511660a08401525060c0830151151560c083015292915050565b60405180910390a1505050565b6060336001600160a01b037f00000000000000000000000000000000000000000000000000000000000000001614611f4557604051632f2d36a760e01b815260040160405180910390fd5b611f4e87612a3b565b611f715750604080518082019091526002815261060f60f31b6020820152611077565b611f7a88611cb3565b611f9757604051631ea25bab60e31b815260040160405180910390fd5b6000611fa585870187614e95565b509050600080611fbf6001600160a01b038c168430613071565b505060408051600b9290920b60208301528181019290925281518082038301815260609091019091529b9a5050505050505050505050565b60009182526065602090815260408084206001600160a01b0393909316845291905290205460ff1690565b6000610c6e33610d67565b606083336001600160a01b038216148015906120725750336001600160a01b037f00000000000000000000000000000000000000000000000000000000000000001614155b15612092573360405163087231bf60e31b8152600401610e4791906148bc565b836000036120b357604051630f6fa54560e41b815260040160405180910390fd5b6097546120cb906001600160a01b0316863087613109565b610ef98585600060405180602001604052806000815250613213565b6097546000906001600160a01b0316331461211557604051630ce706f760e41b815260040160405180910390fd5b8360000361213657604051630f6fa54560e41b815260040160405180910390fd5b6121528585600060405180602001604052806000815250613213565b50600190505b949350505050565b6101435460408051638abf607760e01b815290516000926001600160a01b031691638abf60779160048083019260209291908290030181865afa1580156121ab573d6000803e3d6000fd5b505050506040513d601f19601f820116820180604052508101906121cf9190614fb9565b90506121da81612b0b565b610c5181836000612b16565b60006121f0612ebf565b5092915050565b61220082610f4a565b6122098161253f565b610fba8383612549565b6060600061222387890189614e95565b5090506122328b8286866138bb565b9b9a5050505050505050505050565b60975460405163b2f918a160e01b81526000918291829182918291829182917385608a0f804D0a9A72C022c812125AA25fA5B9bf9163b2f918a19161229591609b916001600160a01b031690600401615031565b60e060405180830381865af41580156122b2573d6000803e3d6000fd5b505050506040513d601f19601f820116820180604052508101906122d691906150bb565b959d949c50929a50909850965094509092509050565b606083336001600160a01b038216148015906123315750336001600160a01b037f00000000000000000000000000000000000000000000000000000000000000001614155b15612351573360405163087231bf60e31b8152600401610e4791906148bc565b6097546040516370a0823160e01b81526000916001600160a01b0316906370a08231906123829030906004016148bc565b602060405180830381865afa15801561239f573d6000803e3d6000fd5b505050506040513d601f19601f820116820180604052508101906123c39190614e7c565b6097546040516321437a5360e01b81529192507385608a0f804D0a9A72C022c812125AA25fA5B9bf916321437a5391612432917f0000000000000000000000000000000000000000000000000000000000000000918a916001600160a01b03909116908c90309060040161512f565b602060405180830381865af415801561244f573d6000803e3d6000fd5b505050506040513d601f19601f820116820180604052508101906124739190614e7c565b506097546040516370a0823160e01b815260009183916001600160a01b03909116906370a08231906124a99030906004016148bc565b602060405180830381865afa1580156124c6573d6000803e3d6000fd5b505050506040513d601f19601f820116820180604052508101906124ea9190614e7c565b6124f49190614dbf565b90508060000361251757604051630f6fa54560e41b815260040160405180910390fd5b6125338782600060405180602001604052806000815250613213565b50939695505050505050565b6111c18133613909565b6000805160206154be8339815191528214801561257957506125796000805160206154be83398151915282611ff7565b1561261f5761014280546001919060009061259b90849063ffffffff16615170565b825463ffffffff9182166101009390930a9283029190920219909116179055506101435460405163058e524d60e11b81526001600160a01b0390911690630b1ca49a906125ec9084906004016148bc565b600060405180830381600087803b15801561260657600080fd5b505af115801561261a573d6000803e3d6000fd5b505050505b610c518282613962565b610135546040516316874da360e11b81526000916001600160a01b031690632d0e9b469061265b9086906004016148bc565b602060405180830381865afa158015612678573d6000803e3d6000fd5b505050506040513d601f19601f8201168201806040525081019061269c9190614fb9565b90506001600160a01b0381166126c75782604051630b7b234960e01b8152600401610e4791906148bc565b6101395463ffffffff16158015906126ea575061013954600160201b900460ff16155b15612707576127076000805160206154be83398151915284612915565b6101395463ffffffff16151580612728575061013954600160201b900460ff165b801561274957506127476000805160206154be83398151915284611ff7565b155b15612769578260405163130f4a3760e11b8152600401610e4791906148bc565b6101445463ffffffff161580159061278f57506101445461013f5463ffffffff90911611155b156127b55761013f54604051635136bc3160e01b81526004810191909152602401610e47565b60006127bf611819565b61013a546001600160a01b0384166000908152610141602052604090205491925090036128015781604051631fc1cabf60e31b8152600401610e4791906148bc565b61013a546001600160a01b0383166000908152610141602052604081209190915561013f805460019290612836908490614de9565b90915550506101408054829190600090612851908490614de9565b9091555061287b9050836128655784612867565b825b610136546001600160a01b031690836139c9565b836001600160a01b0316826001600160a01b03167f1c0764b87f885ff7e1be5f7c06a0cc99c5bdc0f7b4884440e6ebe5b12bfd511d836040516128c091815260200190565b60405180910390a350505050565b60606110778686600b0b8686868080601f01602080910402602001604051908101604052809392919081815260200183838082843760009201919091525061321392505050565b6000805160206154be8339815191528214801561294757506129456000805160206154be83398151915282611ff7565b155b15612a31576101395463ffffffff16158015906129735750610139546101425463ffffffff9182169116115b1561299157604051632263c94160e01b815260040160405180910390fd5b6101435460405163329b55b760e21b81526001600160a01b039091169063ca6d56dc906129c29084906004016148bc565b600060405180830381600087803b1580156129dc57600080fd5b505af11580156129f0573d6000803e3d6000fd5b5050610142805460019350909150600090612a1290849063ffffffff1661518d565b92506101000a81548163ffffffff021916908363ffffffff1602179055505b610c518282613a1f565b604051635b69006f60e11b815260008051602061541783398151915260048201526000907f00000000000000000000000000000000000000000000000000000000000000006001600160a01b03169063b6d200de90602401602060405180830381865afa158015612ab0573d6000803e3d6000fd5b505050506040513d601f19601f82011682018060405250810190612ad49190614fb9565b6001600160a01b0316826001600160a01b0316149050919050565b600080516020615457833981519152546001600160a01b031690565b6000610c518161253f565b7f4910fdfa16fed3260ed0e7147f7cc6da11a60208b5b9406d12a635614ffd91435460ff1615612b4957610fba83613aa5565b826001600160a01b03166352d1902d6040518163ffffffff1660e01b8152600401602060405180830381865afa925050508015612ba3575060408051601f3d908101601f19168201909252612ba091810190614e7c565b60015b612c065760405162461bcd60e51b815260206004820152602e60248201527f45524331393637557067726164653a206e657720696d706c656d656e7461746960448201526d6f6e206973206e6f74205555505360901b6064820152608401610e47565b6000805160206154578339815191528114612c755760405162461bcd60e51b815260206004820152602960248201527f45524331393637557067726164653a20756e737570706f727465642070726f786044820152681a58589b195555525160ba1b6064820152608401610e47565b50610fba838383613b3f565b6001600160a01b03163b151590565b80516001600160a01b03161580612cb2575060408101516001600160a01b0316155b80612cc8575060608101516001600160a01b0316155b156111c157604051631e597d8360e11b815260040160405180910390fd5b602081015163ffffffff161580612d025750805163ffffffff16155b80612d155750604081015163ffffffff16155b80612cc8575060808101516111c157604051631e597d8360e11b815260040160405180910390fd5b610c518282612915565b6001600160a01b038116612d6e5760405163538ba4f960e01b815260040160405180910390fd5b609780546001600160a01b0319166001600160a01b03838116919091179091556040805180820182527f00000000000000000000000000000000000000000000000000000000000000009092168083529051635b69006f60e11b8152600080516020615417833981519152600482015260208301919063b6d200de90602401602060405180830381865afa158015612e0a573d6000803e3d6000fd5b505050506040513d601f19601f82011682018060405250810190612e2e9190614fb9565b6001600160a01b039081169091528151609980546001600160a01b0319908116928416929092179055602090920151609a8054909316911617905550565b6060612eb38786600b0b8686868080601f01602080910402602001604051908101604052809392919081815260200183838082843760009201919091525061321392505050565b98975050505050505050565b610136546040516370a0823160e01b81526000918291829182916001600160a01b03909116906370a0823190612ef99030906004016148bc565b602060405180830381865afa158015612f16573d6000803e3d6000fd5b505050506040513d601f19601f82011682018060405250810190612f3a9190614e7c565b61013754909150600090612f549063ffffffff1683614f72565b90506000606461013a600201546069612f6d9190614dd2565b612f779190614f72565b821180612fbb575061013e54612f8b610c55565b11158015612fbb5750612f9c610c55565b61013e54612faa9190614dbf565b61013c54612fb89190614dd2565b83105b61013c5461013e54909750909150612fd1610c55565b612fdc906001614de9565b101580612fe65750805b156130065761013754612fff9063ffffffff1684614f72565b9550600193505b6101385461013f546130569190613047906127109061302790612904614dd2565b6130319190614f72565b61013754600160401b900463ffffffff16613b6a565b6130519089614f72565b613b81565b6101455490955085101561306957600094505b505050909192565b600080600080600061308288613b90565b604051631cd43d1160e31b81529092506001600160a01b038316915063e6a1e888906130b6908b908b908b906004016151aa565b608060405180830381865afa1580156130d3573d6000803e3d6000fd5b505050506040513d601f19601f820116820180604052508101906130f791906151cd565b929b919a509850909650945050505050565b604080516001600160a01b0385811660248301528481166044830152606480830185905283518084039091018152608490920183526020820180516001600160e01b03166323b872dd60e01b179052915160009283929088169161316d919061520b565b6000604051808303816000865af19150503d80600081146131aa576040519150601f19603f3d011682016040523d82523d6000602084013e6131af565b606091505b50915091508180156131d95750805115806131d95750808060200190518101906131d99190615014565b61320b5760405162461bcd60e51b815260206004820152600360248201526229aa2360e91b6044820152606401610e47565b505050505050565b805181901515600080613224610ca8565b60975491935091507385608a0f804D0a9A72C022c812125AA25fA5B9bf9063934e2cce90609b906001600160a01b031661325c611809565b8588613268578c61326b565b60005b6040516001600160e01b031960e088901b16815260048101959095526001600160a01b03938416602486015292909116604484015263ffffffff166064830152608482015260a40160006040518083038186803b1580156132cb57600080fd5b505af41580156132df573d6000803e3d6000fd5b5050609754600092506132fd91506001600160a01b03168a30613cff565b6001600160a01b038a1660009081526098602052604090205490915084156136f257600082600b0b13801561333a57506459df649400600b83900b125b1561335d57604051624963df60e91b8152600b83900b6004820152602401610e47565b6001600160a01b038a16600090815260986020526040902060010180546001600160e01b031916600160601b426001600160801b038116919091026001600160601b031916919091176001600160601b038516179091556133bf908990614dbf565b6133c9908a614dd2565b6001600160a01b038b16600090815260986020526040812080549091906133f1908490614de9565b9091555060009050613401611809565b6001600160a01b0316146135c457613417611809565b6001600160a01b031663469048406040518163ffffffff1660e01b8152600401602060405180830381865afa158015613454573d6000803e3d6000fd5b505050506040513d601f19601f820116820180604052508101906134789190614fb9565b9350613482611809565b6001600160a01b03166324a9d8536040518163ffffffff1660e01b8152600401602060405180830381865afa1580156134bf573d6000803e3d6000fd5b505050506040513d601f19601f820116820180604052508101906134e39190615227565b92507385608a0f804D0a9A72C022c812125AA25fA5B9bf634d167a906099609760009054906101000a90046001600160a01b0316609b60030160009054906101000a90046001600160a01b031688888f8961353e9190615244565b8d6040518863ffffffff1660e01b81526004016135619796959493929190615271565b600060405180830381865af415801561357e573d6000803e3d6000fd5b505050506040513d6000823e601f3d908101601f191682016040526135a691908101906152c1565b609e80546001600160a01b0319166001600160a01b03871617905595505b6135cc610ca8565b80945081955050507385608a0f804D0a9A72C022c812125AA25fA5B9bf634d167a906099609760009054906101000a90046001600160a01b0316609b60040160009054906101000a90046001600160a01b031688888f8961362d9190615244565b8d6040518863ffffffff1660e01b81526004016136509796959493929190615271565b600060405180830381865af415801561366d573d6000803e3d6000fd5b505050506040513d6000823e601f3d908101601f1916820160405261369591908101906152c1565b609f80546001600160a01b0319166001600160a01b03878116919091179091556097549197506136c6911630613d8d565b609e80546001600160601b0392909216600160a01b026001600160a01b03909216919091179055613831565b60006136fc611809565b6001600160a01b0316146137eb57613712611809565b6001600160a01b031663469048406040518163ffffffff1660e01b8152600401602060405180830381865afa15801561374f573d6000803e3d6000fd5b505050506040513d601f19601f820116820180604052508101906137739190614fb9565b935061377d611809565b6001600160a01b03166324a9d8536040518163ffffffff1660e01b8152600401602060405180830381865afa1580156137ba573d6000803e3d6000fd5b505050506040513d601f19601f820116820180604052508101906137de9190615227565b92506137eb84848b613e0c565b6137f3610ca8565b909450925061380384848b613e0c565b6001600160a01b038a16600090815260986020526040812080548b929061382b908490614de9565b90915550505b6001600160a01b038a166000818152609860205260409020547f6342e11b65ccb38a3bb259be9cda846c74ad52b36b62a2ee4799dc3db63a04a39083908861387a57600061387c565b8c5b604080519384526020840192909252600b90810b8383015286900b60608301528815156080830152519081900360a00190a25050505050949350505050565b60606139008460008086868080601f01602080910402602001604051908101604052809392919081815260200183838082843760009201919091525061321392505050565b95945050505050565b6139138282611ff7565b610c515761392081613e58565b61392b836020613e6a565b60405160200161393c92919061532e565b60408051601f198184030181529082905262461bcd60e51b8252610e479160040161477e565b61396c8282611ff7565b15610c515760008281526065602090815260408083206001600160a01b0385168085529252808320805460ff1916905551339285917ff6391f5c32d9c69d2a47ea670b442974b53935d1edc7fd64eb21e047a839171b9190a45050565b610fba8363a9059cbb60e01b84846040516024016139e892919061539d565b60408051601f198184030181529190526020810180516001600160e01b03166001600160e01b031990931692909217909152614005565b613a298282611ff7565b610c515760008281526065602090815260408083206001600160a01b03851684529091529020805460ff19166001179055613a613390565b6001600160a01b0316816001600160a01b0316837f2f8788117e7eff1d82e926ec794901d17c78024a50270940304540a733656f0d60405160405180910390a45050565b613aae81612c81565b613b105760405162461bcd60e51b815260206004820152602d60248201527f455243313936373a206e657720696d706c656d656e746174696f6e206973206e60448201526c1bdd08184818dbdb9d1c9858dd609a1b6064820152608401610e47565b60008051602061545783398151915280546001600160a01b0319166001600160a01b0392909216919091179055565b613b48836140d7565b600082511180613b555750805b15610fba57613b648383614117565b50505050565b600081831015613b7a5781610d60565b5090919050565b6000818310613b7a5781610d60565b7f65599bf746e17a00ea62e3610586992d88101b78eec3cf380706621fb97ea837547fb969d79d88acd02d04ed7ee7d43b949e7daf093d363abcfbbc43dfdfd1ce969a546001600160a01b038116613cce576001600160a01b038216613c5557826001600160a01b03166320bc44256040518163ffffffff1660e01b8152600401602060405180830381865afa158015613c2e573d6000803e3d6000fd5b505050506040513d601f19601f82011682018060405250810190613c529190614fb9565b91505b604051635b69006f60e11b815260008051602061541783398151915260048201526001600160a01b0383169063b6d200de90602401602060405180830381865afa158015613ca7573d6000803e3d6000fd5b505050506040513d601f19601f82011682018060405250810190613ccb9190614fb9565b90505b6001600160a01b038216613ce457613ce46153b6565b6001600160a01b038116613cfa57613cfa6153b6565b915091565b600080613d0b85613b90565b604051631cd43d1160e31b81529092506001600160a01b038316915063e6a1e88890613d3f908890889088906004016151aa565b608060405180830381865afa158015613d5c573d6000803e3d6000fd5b505050506040513d601f19601f82011682018060405250810190613d8091906151cd565b5090979650505050505050565b600080613d9984613b90565b60405163e8e7e2d160e01b81529092506001600160a01b038316915063e8e7e2d190613dcb9087908790600401614d31565b602060405180830381865afa158015613de8573d6000803e3d6000fd5b505050506040513d601f19601f8201168201806040525081019061215891906153cc565b6001600160a01b038316613e1f57505050565b6000612710613e3463ffffffff851684614dd2565b613e3e9190614f72565b609754909150613b64906001600160a01b03168583614200565b6060610c1b6001600160a01b03831660145b60606000613e79836002614dd2565b613e84906002614de9565b6001600160401b03811115613e9b57613e9b61455c565b6040519080825280601f01601f191660200182016040528015613ec5576020820181803683370190505b509050600360fc1b81600081518110613ee057613ee06153e9565b60200101906001600160f81b031916908160001a905350600f60fb1b81600181518110613f0f57613f0f6153e9565b60200101906001600160f81b031916908160001a9053506000613f33846002614dd2565b613f3e906001614de9565b90505b6001811115613fb6576f181899199a1a9b1b9c1cb0b131b232b360811b85600f1660108110613f7257613f726153e9565b1a60f81b828281518110613f8857613f886153e9565b60200101906001600160f81b031916908160001a90535060049490941c93613faf816153ff565b9050613f41565b508315610d605760405162461bcd60e51b815260206004820181905260248201527f537472696e67733a20686578206c656e67746820696e73756666696369656e746044820152606401610e47565b600061405a826040518060400160405280602081526020017f5361666545524332303a206c6f772d6c6576656c2063616c6c206661696c6564815250856001600160a01b03166143039092919063ffffffff16565b805190915015610fba57808060200190518101906140789190615014565b610fba5760405162461bcd60e51b815260206004820152602a60248201527f5361666545524332303a204552433230206f7065726174696f6e20646964206e6044820152691bdd081cdd58d8d9595960b21b6064820152608401610e47565b6140e081613aa5565b6040516001600160a01b038216907fbc7cd75a20ee27fd9adebab32041f755214dbc6bffa90cc0225b39da2e5c2d3b90600090a250565b606061412283612c81565b61417d5760405162461bcd60e51b815260206004820152602660248201527f416464726573733a2064656c65676174652063616c6c20746f206e6f6e2d636f6044820152651b9d1c9858dd60d21b6064820152608401610e47565b600080846001600160a01b031684604051614198919061520b565b600060405180830381855af49150503d80600081146141d3576040519150601f19603f3d011682016040523d82523d6000602084013e6141d8565b606091505b5091509150613900828260405180606001604052806027815260200161549760279139614312565b600080846001600160a01b031663a9059cbb60e01b858560405160240161422892919061539d565b60408051601f198184030181529181526020820180516001600160e01b03166001600160e01b0319909416939093179092529051614266919061520b565b6000604051808303816000865af19150503d80600081146142a3576040519150601f19603f3d011682016040523d82523d6000602084013e6142a8565b606091505b50915091508180156142d25750805115806142d25750808060200190518101906142d29190615014565b6114805760405162461bcd60e51b815260206004820152600260248201526114d560f21b6044820152606401610e47565b6060612158848460008561432b565b60608315614321575081610d60565b610d6083836143fb565b60608247101561438c5760405162461bcd60e51b815260206004820152602660248201527f416464726573733a20696e73756666696369656e742062616c616e636520666f6044820152651c8818d85b1b60d21b6064820152608401610e47565b600080866001600160a01b031685876040516143a8919061520b565b60006040518083038185875af1925050503d80600081146143e5576040519150601f19603f3d011682016040523d82523d6000602084013e6143ea565b606091505b509150915061107787838387614425565b81511561440b5781518083602001fd5b8060405162461bcd60e51b8152600401610e47919061477e565b6060831561449257825160000361448b5761443f85612c81565b61448b5760405162461bcd60e51b815260206004820152601d60248201527f416464726573733a2063616c6c20746f206e6f6e2d636f6e74726163740000006044820152606401610e47565b5081612158565b61215883836143fb565b6000602082840312156144ae57600080fd5b81356001600160e01b031981168114610d6057600080fd5b6001600160a01b03811681146111c157600080fd5b6000602082840312156144ed57600080fd5b8135610d60816144c6565b80151581146111c157600080fd5b8035614511816144f8565b919050565b6000806040838503121561452957600080fd5b8235614534816144c6565b91506020830135614544816144f8565b809150509250929050565b6001600160a01b03169052565b634e487b7160e01b600052604160045260246000fd5b604051601f8201601f191681016001600160401b038111828210171561459a5761459a61455c565b604052919050565b60006001600160401b038211156145bb576145bb61455c565b50601f01601f191660200190565b600082601f8301126145da57600080fd5b81356145ed6145e8826145a2565b614572565b81815284602083860101111561460257600080fd5b816020850160208301376000918101602001919091529392505050565b600060a0828403121561463157600080fd5b60405160a081016001600160401b0380821183831017156146545761465461455c565b8160405282935084359150614668826144c6565b818352602085013560208401526040850135604084015260608501356060840152608085013591508082111561469d57600080fd5b506146aa858286016145c9565b6080830152505092915050565b6000806000606084860312156146cc57600080fd5b83356001600160401b03808211156146e357600080fd5b6146ef8783880161461f565b945060208601359150614701826144c6565b9092506040850135908082111561471757600080fd5b50614724868287016145c9565b9150509250925092565b60005b83811015614749578181015183820152602001614731565b50506000910152565b6000815180845261476a81602086016020860161472e565b601f01601f19169290920160200192915050565b602081526000610d606020830184614752565b60008083601f8401126147a357600080fd5b5081356001600160401b038111156147ba57600080fd5b6020830191508360208285010111156147d257600080fd5b9250929050565b600080600080600080600080600060c08a8c0312156147f757600080fd5b8935614802816144c6565b985060208a0135614812816144c6565b975060408a0135965060608a01356001600160401b038082111561483557600080fd5b6148418d838e01614791565b909850965060808c013591508082111561485a57600080fd5b6148668d838e01614791565b909650945060a08c013591508082111561487f57600080fd5b5061488c8c828d01614791565b915080935050809150509295985092959850929598565b6000602082840312156148b557600080fd5b5035919050565b6001600160a01b0391909116815260200190565b600080604083850312156148e357600080fd5b823591506020830135614544816144c6565b600080600080600080600060a0888a03121561491057600080fd5b873561491b816144c6565b9650602088013561492b816144c6565b95506040880135945060608801356001600160401b038082111561494e57600080fd5b61495a8b838c01614791565b909650945060808a013591508082111561497357600080fd5b506149808a828b01614791565b989b979a50959850939692959293505050565b6000608082840312156149a557600080fd5b604051608081016001600160401b03811182821017156149c7576149c761455c565b60405290508082356149d8816144c6565b815260208301356149e8816144c6565b602082015260408301356149fb816144c6565b60408201526060830135614a0e816144c6565b6060919091015292915050565b63ffffffff811681146111c157600080fd5b803561451181614a1b565b600060e08284031215614a4a57600080fd5b60405160e081016001600160401b0381118282101715614a6c57614a6c61455c565b6040529050808235614a7d81614a1b565b81526020830135614a8d81614a1b565b60208201526040830135614aa081614a1b565b60408201526060830135614ab3816144f8565b606082015260808381013590820152614ace60a08401614a2d565b60a0820152614adf60c08401614506565b60c08201525092915050565b600060608284031215614afd57600080fd5b604051606081016001600160401b0381118282101715614b1f57614b1f61455c565b6040529050808235614b3081614a1b565b8152602083810135908201526040830135614b4a81614a1b565b6040919091015292915050565b6000806000806101e08587031215614b6e57600080fd5b614b788686614993565b9350614b878660808701614a38565b9250614b97866101608701614aeb565b91506101c0850135614ba8816144c6565b939692955090935050565b60008060408385031215614bc657600080fd5b8235614bd1816144c6565b915060208301356001600160401b03811115614bec57600080fd5b614bf8858286016145c9565b9150509250929050565b600060808284031215614c1457600080fd5b610d608383614993565b6000806101408385031215614c3257600080fd5b614c3c8484614a38565b9150614c4b8460e08501614aeb565b90509250929050565b600080600060608486031215614c6957600080fd5b8335614c74816144c6565b92506020840135915060408401356001600160401b03811115614c9657600080fd5b614724868287016145c9565b60008060008060608587031215614cb857600080fd5b8435614cc3816144c6565b93506020850135925060408501356001600160401b03811115614ce557600080fd5b614cf187828801614791565b95989497509550505050565b600060208284031215614d0f57600080fd5b81356001600160401b03811115614d2557600080fd5b612158848285016145c9565b6001600160a01b0392831681529116602082015260400190565b600080600060608486031215614d6057600080fd5b8335614d6b816144c6565b925060208401356001600160401b0380821115614d8757600080fd5b614d938783880161461f565b9350604086013591508082111561471757600080fd5b634e487b7160e01b600052601160045260246000fd5b81810381811115610c1b57610c1b614da9565b8082028115828204841417610c1b57610c1b614da9565b80820180821115610c1b57610c1b614da9565b60018060a01b0381511682526020810151602083015260408101516040830152606081015160608301526000608082015160a0608085015261215860a0850182614752565b600060018060a01b03808716835260806020840152614e636080840187614dfc565b9481166040840152929092166060909101525092915050565b600060208284031215614e8e57600080fd5b5051919050565b60008060408385031215614ea857600080fd5b8235614eb3816144c6565b91506020830135614544816144c6565b80600b0b81146111c157600080fd5b60008060408385031215614ee557600080fd5b8235614ef081614ec3565b946020939093013593505050565b6020808252602c9082015260008051602061543783398151915260408201526b19195b1959d85d1958d85b1b60a21b606082015260800190565b6020808252602c9082015260008051602061543783398151915260408201526b6163746976652070726f787960a01b606082015260800190565b600082614f8f57634e487b7160e01b600052601260045260246000fd5b500490565b60008060408385031215614fa757600080fd5b82359150602083013561454481614ec3565b600060208284031215614fcb57600080fd5b8151610d60816144c6565b6001600160a01b03858116825284811660208301528316604082015260806060820181905260009061500a90830184614752565b9695505050505050565b60006020828403121561502657600080fd5b8151610d60816144f8565b825481526001830154602082015260028301546040820152600383015461012082019061506a606084016001600160a01b03831661454f565b61507c608084018260a01d600b0b9052565b5060048401546001600160a01b031661509860a084018261454f565b50600584015460c0830152600684015460e0830152610d6061010083018461454f565b600080600080600080600060e0888a0312156150d657600080fd5b8751965060208801519550604088015194506060880151935060808801516150fd81614ec3565b60a089015190935061510e81614ec3565b60c089015190925061511f81614ec3565b8091505092959891949750929550565b600060018060a01b03808816835260a0602084015261515160a0840188614dfc565b9581166040840152938416606083015250911660809091015292915050565b63ffffffff8281168282160390808211156121f0576121f0614da9565b63ffffffff8181168382160190808211156121f0576121f0614da9565b6001600160a01b0393841681529183166020830152909116604082015260600190565b600080600080608085870312156151e357600080fd5b8451935060208501516151f581614ec3565b6040860151606090960151949790965092505050565b6000825161521d81846020870161472e565b9190910192915050565b60006020828403121561523957600080fd5b8151610d6081614a1b565b600b82810b9082900b0360016001605f1b0319811260016001605f1b0382131715610c1b57610c1b614da9565b8781526001600160a01b03878116602083015286811660408301528516606082015263ffffffff84166080820152600b83900b60a082015260e060c08201819052600090610f3d90830184614752565b6000602082840312156152d357600080fd5b81516001600160401b038111156152e957600080fd5b8201601f810184136152fa57600080fd5b80516153086145e8826145a2565b81815285602083850101111561531d57600080fd5b61390082602083016020860161472e565b76020b1b1b2b9b9a1b7b73a3937b61d1030b1b1b7bab73a1604d1b81526000835161536081601785016020880161472e565b7001034b99036b4b9b9b4b733903937b6329607d1b601791840191820152835161539181602884016020880161472e565b01602801949350505050565b6001600160a01b03929092168252602082015260400190565b634e487b7160e01b600052600160045260246000fd5b6000602082840312156153de57600080fd5b8151610d6081614ec3565b634e487b7160e01b600052603260045260246000fd5b60008161540e5761540e614da9565b50600019019056fea9214cc96615e0085d3bb077758db69497dc2dce3b2b1e97bc93c3d18d83efd346756e6374696f6e206d7573742062652063616c6c6564207468726f75676820360894a13ba1a3210667c828492db98dca3e2076cc3735a920a3ca505d382bbc241ecf16d79d0f8dbfb92cbc07fe17840425976cf0667f022fe9877caa831b08416464726573733a206c6f772d6c6576656c2064656c65676174652063616c6c206661696c6564829b824e2329e205435d941c9f13baf578548505283d29261236d8e6596d4636a26469706673582212202027bee3227ca3087d63c709f33bf82f06c231fe331f6c012104a28220589f9e64736f6c63430008130033",
  "deployedBytecode": "0x60806040526004361061027b5760003560e01c806301ffc9a7146102805780630b1ca49a146102b55780630c710776146102d75780630ce82d67146103035780630e0cc1b91461032657806319805538146103465780631a2a84b31461037f5780631a787f2e1461039f5780631db128c7146103bf578063200d2ed2146103ec578063230dbd291461046e578063248a9ca31461048e578063298052df146104ae5780632b4116f7146104c35780632f2ff15d146104f057806330d9c9151461051057806336568abe146105305780633659cfe6146105505780633e6968b61461057057806346b6a742146105855780634e71d92d146105a55780634f1ef286146105ba57806352d1902d146105cd57806353c11f99146105e2578063598f8fbf146106025780635a4c5152146106225780635ab1bd53146106b95780635da93292146106ce5780635f9e7d77146106e35780636180c79314610703578063647c75e21461072357806372ca8a3e1461079457806373b2e80e146107b4578063791ea89b146107d45780637b103999146107f457806388480f0c14610815578063884d1f401461086757806391d148541461088757806398d6621b146108a75780639f8fddd2146108bc578063a10f469e146108dc578063a217fddf146108fe578063a4c0ed3614610913578063ae82720014610933578063bcb4546f14610946578063c31c9c0714610968578063c77138701461099c578063d3112b2e146109b1578063d547741f146109e6578063d80528ae14610a06578063d86ed3e514610a97578063dc61d5c214610ab7578063def482a414610b0a578063e06174e414610b2a578063ec87621c14610b94578063f437bc5914610bb6575b600080fd5b34801561028c57600080fd5b506102a061029b36600461449c565b610bea565b60405190151581526020015b60405180910390f35b3480156102c157600080fd5b506102d56102d03660046144db565b610c21565b005b3480156102e357600080fd5b506102f06459df64940081565b604051600b9190910b81526020016102ac565b34801561030f57600080fd5b50610318610c55565b6040519081526020016102ac565b34801561033257600080fd5b506102d5610341366004614516565b610c73565b34801561035257600080fd5b5061035b610ca8565b604080516001600160a01b03909316835263ffffffff9091166020830152016102ac565b34801561038b57600080fd5b5061031861039a3660046144db565b610cc7565b3480156103ab57600080fd5b506103186103ba3660046144db565b610d67565b3480156103cb57600080fd5b506103df6103da3660046146b7565b610de2565b6040516102ac919061477e565b3480156103f857600080fd5b5061013a5461013b5461013c5461013d5461013e5461013f54610140546101425461042d979695949392919063ffffffff1688565b604080519889526020890197909752958701949094526060860192909252608085015260a084015260c083015263ffffffff1660e0820152610100016102ac565b34801561047a57600080fd5b506103df6104893660046147d9565b610f03565b34801561049a57600080fd5b506103186104a93660046148a3565b610f4a565b3480156104ba57600080fd5b50610318610f5f565b3480156104cf57600080fd5b506097546104e3906001600160a01b031681565b6040516102ac91906148bc565b3480156104fc57600080fd5b506102d561050b3660046148d0565b610f9e565b34801561051c57600080fd5b506103df61052b3660046148f5565b610fbf565b34801561053c57600080fd5b506102d561054b3660046148d0565b611082565b34801561055c57600080fd5b506102d561056b3660046144db565b6110fc565b34801561057c57600080fd5b506103186111c4565b34801561059157600080fd5b506102d56105a0366004614b57565b6111e0565b3480156105b157600080fd5b506102d5611487565b6102d56105c8366004614bb3565b611494565b3480156105d957600080fd5b50610318611549565b3480156105ee57600080fd5b506103df6105fd3660046147d9565b6115f7565b34801561060e57600080fd5b506102d561061d366004614c02565b6116d4565b34801561062e57600080fd5b506101375461013854610139546106749263ffffffff80821693600160201b808404831694600160401b850484169460ff600160601b9091048116948216929091041687565b6040805163ffffffff98891681529688166020880152948716948601949094529115156060850152608084015290921660a082015290151560c082015260e0016102ac565b3480156106c557600080fd5b506104e3611809565b3480156106da57600080fd5b50610318611819565b3480156106ef57600080fd5b506103df6106fe3660046148f5565b6119d1565b34801561070f57600080fd5b506102a061071e366004614bb3565b611ab6565b34801561072f57600080fd5b5061076d61073e3660046144db565b60986020526000908152604090208054600190910154600b81900b90600160601b90046001600160801b031683565b60408051938452600b9290920b60208401526001600160801b0316908201526060016102ac565b3480156107a057600080fd5b506102a06107af3660046144db565b611cb3565b3480156107c057600080fd5b506102a06107cf3660046144db565b611cc7565b3480156107e057600080fd5b506102d56107ef366004614c1e565b611d6a565b34801561080057600080fd5b50610143546104e3906001600160a01b031681565b34801561082157600080fd5b506101445461014554610146546108409263ffffffff90811692911683565b6040805163ffffffff948516815260208101939093529216918101919091526060016102ac565b34801561087357600080fd5b506103df6108823660046148f5565b611efa565b34801561089357600080fd5b506102a06108a23660046148d0565b611ff7565b3480156108b357600080fd5b50610318612022565b3480156108c857600080fd5b506103df6108d7366004614c54565b61202d565b3480156108e857600080fd5b506103186000805160206154be83398151915281565b34801561090a57600080fd5b50610318600081565b34801561091f57600080fd5b506102a061092e366004614ca2565b6120e7565b6102d5610941366004614cfd565b612160565b34801561095257600080fd5b5061031860008051602061541783398151915281565b34801561097457600080fd5b506104e37f000000000000000000000000000000000000000000000000000000000000000081565b3480156109a857600080fd5b506103186121e6565b3480156109bd57600080fd5b50609954609a546109d8916001600160a01b03908116911682565b6040516102ac929190614d31565b3480156109f257600080fd5b506102d5610a013660046148d0565b6121f7565b348015610a1257600080fd5b50609b54609c54609d54609e54609f5460a05460a154610a4d969594936001600160a01b0380821694600160a01b909204600b0b9391169188565b604080519889526020890197909752958701949094526001600160a01b039283166060870152600b9190910b60808601521660a084015260c083015260e0820152610100016102ac565b348015610aa357600080fd5b506103df610ab23660046147d9565b612213565b348015610ac357600080fd5b50610acc612241565b604080519788526020880196909652948601939093526060850191909152600b90810b608085015290810b60a08401520b60c082015260e0016102ac565b348015610b1657600080fd5b506103df610b25366004614d4b565b6122ec565b348015610b3657600080fd5b5061013354610134546101355461013654610b61936001600160a01b03908116938116928116911684565b604080516001600160a01b03958616815293851660208501529184169183019190915290911660608201526080016102ac565b348015610ba057600080fd5b5061031860008051602061547783398151915281565b348015610bc257600080fd5b506104e37f000000000000000000000000000000000000000000000000000000000000000081565b60006001600160e01b03198216637965db0b60e01b1480610c1b57506301ffc9a760e01b6001600160e01b03198316145b92915050565b600080516020615477833981519152610c398161253f565b610c516000805160206154be83398151915283612549565b5050565b61013d54600090610c646111c4565b610c6e9190614dbf565b905090565b61013754600160601b900460ff16610c9e576040516369973f2560e11b815260040160405180910390fd5b610c518282612629565b61013354610146546001600160a01b039091169163ffffffff90911690565b6001600160a01b0381166000908152609860209081526040808320815160608101835281548152600190910154600b81900b938201849052600160601b90046001600160801b031691810191909152908203610d24575192915050565b6040810151610d3c906001600160801b031642614dbf565b81602001516001600160601b0316610d549190614dd2565b8151610d609190614de9565b9392505050565b6000610d716111c4565b61013a54148015610d84575061013b5415155b15610dda576101445463ffffffff1615801590610daf57506101445461013f5463ffffffff90911611155b15610dbc57506000919050565b610dc582611cc7565b610dd25761013b54610c1b565b600092915050565b610c1b6121e6565b606082336001600160a01b03821614801590610e275750336001600160a01b037f00000000000000000000000000000000000000000000000000000000000000001614155b15610e50573360405163087231bf60e31b8152600401610e4791906148bc565b60405180910390fd5b6097546040516358c0dacb60e01b815273__$0d78a42341742155da77b97d7f993534c7$__916358c0dacb91610eb8917f0000000000000000000000000000000000000000000000000000000000000000918a916001600160a01b0316908a90600401614e41565b602060405180830381865af4158015610ed5573d6000803e3d6000fd5b505050506040513d601f19601f82011682018060405250810190610ef99190614e7c565b5091949350505050565b60606000610f1387890189614e95565b509050600080610f2587890189614ed2565b91509150610f378d8484848a8a6128ce565b93505050505b9998505050505050505050565b60009081526065602052604090206001015490565b61013754600090600160201b900463ffffffff16610f7b6111c4565b610f859190614de9565b610f929062015180614dd2565b610c6e9061a8c0614de9565b610fa782610f4a565b610fb08161253f565b610fba8383612915565b505050565b6060336001600160a01b037f0000000000000000000000000000000000000000000000000000000000000000161461100a57604051632f2d36a760e01b815260040160405180910390fd5b61101387612a3b565b6110365750604080518082019091526002815261060f60f31b6020820152611077565b61103f88611cb3565b61105c57604051631ea25bab60e31b815260040160405180910390fd5b50604080518082019091526002815261060f60f31b60208201525b979650505050505050565b6001600160a01b03811633146110f25760405162461bcd60e51b815260206004820152602f60248201527f416363657373436f6e74726f6c3a2063616e206f6e6c792072656e6f756e636560448201526e103937b632b9903337b91039b2b63360891b6064820152608401610e47565b610c518282612549565b6001600160a01b037f00000000000000000000000000000000000000000000000000000000000000001630036111445760405162461bcd60e51b8152600401610e4790614efe565b7f00000000000000000000000000000000000000000000000000000000000000006001600160a01b0316611176612aef565b6001600160a01b03161461119c5760405162461bcd60e51b8152600401610e4790614f38565b6111a581612b0b565b604080516000808252602082019092526111c191839190612b16565b50565b6000620151806111d661a8c042614dbf565b610c6e9190614f72565b600054610100900460ff16158080156112005750600054600160ff909116105b80611221575061120f30612c81565b158015611221575060005460ff166001145b6112845760405162461bcd60e51b815260206004820152602e60248201527f496e697469616c697a61626c653a20636f6e747261637420697320616c72656160448201526d191e481a5b9a5d1a585b1a5e995960921b6064820152608401610e47565b6000805460ff1916600117905580156112a7576000805461ff0019166101001790555b61014380546001600160a01b03199081166001600160a01b038581169190911790925586516101338054831691841691909117905560208088015161013480548416918516919091179055604080890151610135805485169186169190911790556060808a0151610136805490951695169490941790925586516101378054898401518a860151968b015163ffffffff9485166001600160401b031990931692909217600160201b91851682021764ffffffffff60401b1916600160401b9785169790970260ff60601b191696909617600160601b9115159190910217905560808801516101385560a0880151610139805460c08b015192841664ffffffffff1990911617911515909502179093558551610144805463ffffffff19908116928616929092179055908601516101455590850151610146805490921692169190911790556113f485612c90565b6113fd84612ce6565b611408600033612d3d565b6114246000805160206154778339815191528660000151612d3d565b6101365461143a906001600160a01b0316612d47565b8015611480576000805461ff0019169055604051600181527f7f26b83ff96e1f2b6a682f133852f6798a09c465da95921460cefb38474024989060200160405180910390a15b5050505050565b611492336001612629565b565b6001600160a01b037f00000000000000000000000000000000000000000000000000000000000000001630036114dc5760405162461bcd60e51b8152600401610e4790614efe565b7f00000000000000000000000000000000000000000000000000000000000000006001600160a01b031661150e612aef565b6001600160a01b0316146115345760405162461bcd60e51b8152600401610e4790614f38565b61153d82612b0b565b610c5182826001612b16565b6000306001600160a01b037f000000000000000000000000000000000000000000000000000000000000000016146115e45760405162461bcd60e51b815260206004820152603860248201527f555550535570677261646561626c653a206d757374206e6f742062652063616c6044820152771b1959081d1a1c9bdd59da0819195b1959d85d1958d85b1b60421b6064820152608401610e47565b5060008051602061545783398151915290565b6060336001600160a01b037f000000000000000000000000000000000000000000000000000000000000000016141580611637575061163589612a3b565b155b8061164857506116468a611cb3565b155b1561168c5782828080601f016020809104026020016040519081016040528093929190818152602001838380828437600092019190915250929350610f3d92505050565b60008061169b888a018a614e95565b90925090506000806116af888a018a614f94565b915091506116c28e858584868c8c612e6c565b9e9d5050505050505050505050505050565b6000805160206154778339815191526116ec8161253f565b6116f582612c90565b6101335482516001600160a01b0390811691161461174f576101335461173390600080516020615477833981519152906001600160a01b0316612549565b61174f6000805160206154778339815191528360000151612d3d565b815161013380546001600160a01b03199081166001600160a01b03938416908117909255602080860180516101348054851691871691909117905560408088018051610135805487169189169190911790556060808a0180516101368054909816908a161790965582519687529251871693860193909352915185168483015291519093169082015290517fc5e56c36231b7247b96ddd6a7e47b60748a332bcb3a514d016fd2e74d9159351916080908290030190a15050565b610143546001600160a01b031690565b6000806118246111c4565b6101375461013a5491925061184791600160201b90910463ffffffff1690614de9565b81106119c857600080600061185a612ebf565b925092509250801561194357610136546040516370a0823160e01b81526000916001600160a01b0316906370a08231906118989030906004016148bc565b602060405180830381865afa1580156118b5573d6000803e3d6000fd5b505050506040513d601f19601f820116820180604052508101906118d99190614e7c565b61013c8590556101375463ffffffff1661013e81905561013d879055604080518881526020810184905290810191909152606081018690529091507f83e0d535b9e84324e0a25922406398d6ff5f96d0c686204ee490e16d7670566f9060800160405180910390a1505b61013a84905561013b82905561014554821161196057600061013b555b61013b5461013f5461014054604080518881526020810194909452438482015260608401929092526080830152517fdd2b882b89647cd6c5641ce6ab9d46f1c17865d2b22f065850f30f83cc7d8cf89181900360a00190a15050600061013f81905561014055505b505061013b5490565b6060336001600160a01b037f000000000000000000000000000000000000000000000000000000000000000016141580611a115750611a0f87612a3b565b155b80611a225750611a2088611cb3565b155b15611a465750604080518082019091526002815261060f60f31b6020820152611077565b600080611a5586880188614e95565b9092509050600080611a716001600160a01b038d168585613071565b5050915091508181604051602001611a96929190918252600b0b602082015260400190565b604051602081830303815290604052945050505050979650505050505050565b610135546000906001600160a01b031615611b6b57610135546040516316874da360e11b81526000916001600160a01b031690632d0e9b4690611afd9087906004016148bc565b602060405180830381865afa158015611b1a573d6000803e3d6000fd5b505050506040513d601f19601f82011682018060405250810190611b3e9190614fb9565b90506001600160a01b038116611b695783604051630b7b234960e01b8152600401610e4791906148bc565b505b610134546001600160a01b031615801590611b9b5750611b9960008051602061547783398151915233611ff7565b155b15611c4357610134546040516356a42afd60e11b81526001600160a01b039091169063ad4855fa90611bd7903090339088908890600401614fd6565b6020604051808303816000875af1158015611bf6573d6000803e3d6000fd5b505050506040513d601f19601f82011682018060405250810190611c1a9190615014565b1515600003611c3e578260405163130f4a3760e11b8152600401610e4791906148bc565b611c92565b61013954600160201b900460ff168015611c725750611c7060008051602061547783398151915233611ff7565b155b15611c925782604051636f6acad560e01b8152600401610e4791906148bc565b611caa6000805160206154be83398151915284612915565b50600192915050565b6097546001600160a01b0390811691161490565b610135546040516316874da360e11b815260009182916001600160a01b0390911690632d0e9b4690611cfd9086906004016148bc565b602060405180830381865afa158015611d1a573d6000803e3d6000fd5b505050506040513d601f19601f82011682018060405250810190611d3e9190614fb9565b9050611d486111c4565b6001600160a01b03909116600090815261014160205260409020541492915050565b600080516020615477833981519152611d828161253f565b611d8b83612ce6565b8251610137805460208087015160408089015160608a01511515600160601b0260ff60601b1963ffffffff928316600160401b021664ffffffffff60401b19948316600160201b9081026001600160401b0319909816998416999099179690961793909316949094179190911790935560808701516101385560a0870151610139805460c08a0151151590960264ffffffffff1990961691841691909117949094179093558451610144805491831663ffffffff19928316179055928501516101455584820151610146805491909216931692909217909155517f9c2d0f3e240667c2b704104ff988af37be9eb4befb81fe00424626b088ee757990611eed908590600060e08201905063ffffffff808451168352806020850151166020840152806040850151166040840152606084015115156060840152608084015160808401528060a08501511660a08401525060c0830151151560c083015292915050565b60405180910390a1505050565b6060336001600160a01b037f00000000000000000000000000000000000000000000000000000000000000001614611f4557604051632f2d36a760e01b815260040160405180910390fd5b611f4e87612a3b565b611f715750604080518082019091526002815261060f60f31b6020820152611077565b611f7a88611cb3565b611f9757604051631ea25bab60e31b815260040160405180910390fd5b6000611fa585870187614e95565b509050600080611fbf6001600160a01b038c168430613071565b505060408051600b9290920b60208301528181019290925281518082038301815260609091019091529b9a5050505050505050505050565b60009182526065602090815260408084206001600160a01b0393909316845291905290205460ff1690565b6000610c6e33610d67565b606083336001600160a01b038216148015906120725750336001600160a01b037f00000000000000000000000000000000000000000000000000000000000000001614155b15612092573360405163087231bf60e31b8152600401610e4791906148bc565b836000036120b357604051630f6fa54560e41b815260040160405180910390fd5b6097546120cb906001600160a01b0316863087613109565b610ef98585600060405180602001604052806000815250613213565b6097546000906001600160a01b0316331461211557604051630ce706f760e41b815260040160405180910390fd5b8360000361213657604051630f6fa54560e41b815260040160405180910390fd5b6121528585600060405180602001604052806000815250613213565b50600190505b949350505050565b6101435460408051638abf607760e01b815290516000926001600160a01b031691638abf60779160048083019260209291908290030181865afa1580156121ab573d6000803e3d6000fd5b505050506040513d601f19601f820116820180604052508101906121cf9190614fb9565b90506121da81612b0b565b610c5181836000612b16565b60006121f0612ebf565b5092915050565b61220082610f4a565b6122098161253f565b610fba8383612549565b6060600061222387890189614e95565b5090506122328b8286866138bb565b9b9a5050505050505050505050565b60975460405163b2f918a160e01b815260009182918291829182918291829173__$0d78a42341742155da77b97d7f993534c7$__9163b2f918a19161229591609b916001600160a01b031690600401615031565b60e060405180830381865af41580156122b2573d6000803e3d6000fd5b505050506040513d601f19601f820116820180604052508101906122d691906150bb565b959d949c50929a50909850965094509092509050565b606083336001600160a01b038216148015906123315750336001600160a01b037f00000000000000000000000000000000000000000000000000000000000000001614155b15612351573360405163087231bf60e31b8152600401610e4791906148bc565b6097546040516370a0823160e01b81526000916001600160a01b0316906370a08231906123829030906004016148bc565b602060405180830381865afa15801561239f573d6000803e3d6000fd5b505050506040513d601f19601f820116820180604052508101906123c39190614e7c565b6097546040516321437a5360e01b815291925073__$0d78a42341742155da77b97d7f993534c7$__916321437a5391612432917f0000000000000000000000000000000000000000000000000000000000000000918a916001600160a01b03909116908c90309060040161512f565b602060405180830381865af415801561244f573d6000803e3d6000fd5b505050506040513d601f19601f820116820180604052508101906124739190614e7c565b506097546040516370a0823160e01b815260009183916001600160a01b03909116906370a08231906124a99030906004016148bc565b602060405180830381865afa1580156124c6573d6000803e3d6000fd5b505050506040513d601f19601f820116820180604052508101906124ea9190614e7c565b6124f49190614dbf565b90508060000361251757604051630f6fa54560e41b815260040160405180910390fd5b6125338782600060405180602001604052806000815250613213565b50939695505050505050565b6111c18133613909565b6000805160206154be8339815191528214801561257957506125796000805160206154be83398151915282611ff7565b1561261f5761014280546001919060009061259b90849063ffffffff16615170565b825463ffffffff9182166101009390930a9283029190920219909116179055506101435460405163058e524d60e11b81526001600160a01b0390911690630b1ca49a906125ec9084906004016148bc565b600060405180830381600087803b15801561260657600080fd5b505af115801561261a573d6000803e3d6000fd5b505050505b610c518282613962565b610135546040516316874da360e11b81526000916001600160a01b031690632d0e9b469061265b9086906004016148bc565b602060405180830381865afa158015612678573d6000803e3d6000fd5b505050506040513d601f19601f8201168201806040525081019061269c9190614fb9565b90506001600160a01b0381166126c75782604051630b7b234960e01b8152600401610e4791906148bc565b6101395463ffffffff16158015906126ea575061013954600160201b900460ff16155b15612707576127076000805160206154be83398151915284612915565b6101395463ffffffff16151580612728575061013954600160201b900460ff165b801561274957506127476000805160206154be83398151915284611ff7565b155b15612769578260405163130f4a3760e11b8152600401610e4791906148bc565b6101445463ffffffff161580159061278f57506101445461013f5463ffffffff90911611155b156127b55761013f54604051635136bc3160e01b81526004810191909152602401610e47565b60006127bf611819565b61013a546001600160a01b0384166000908152610141602052604090205491925090036128015781604051631fc1cabf60e31b8152600401610e4791906148bc565b61013a546001600160a01b0383166000908152610141602052604081209190915561013f805460019290612836908490614de9565b90915550506101408054829190600090612851908490614de9565b9091555061287b9050836128655784612867565b825b610136546001600160a01b031690836139c9565b836001600160a01b0316826001600160a01b03167f1c0764b87f885ff7e1be5f7c06a0cc99c5bdc0f7b4884440e6ebe5b12bfd511d836040516128c091815260200190565b60405180910390a350505050565b60606110778686600b0b8686868080601f01602080910402602001604051908101604052809392919081815260200183838082843760009201919091525061321392505050565b6000805160206154be8339815191528214801561294757506129456000805160206154be83398151915282611ff7565b155b15612a31576101395463ffffffff16158015906129735750610139546101425463ffffffff9182169116115b1561299157604051632263c94160e01b815260040160405180910390fd5b6101435460405163329b55b760e21b81526001600160a01b039091169063ca6d56dc906129c29084906004016148bc565b600060405180830381600087803b1580156129dc57600080fd5b505af11580156129f0573d6000803e3d6000fd5b5050610142805460019350909150600090612a1290849063ffffffff1661518d565b92506101000a81548163ffffffff021916908363ffffffff1602179055505b610c518282613a1f565b604051635b69006f60e11b815260008051602061541783398151915260048201526000907f00000000000000000000000000000000000000000000000000000000000000006001600160a01b03169063b6d200de90602401602060405180830381865afa158015612ab0573d6000803e3d6000fd5b505050506040513d601f19601f82011682018060405250810190612ad49190614fb9565b6001600160a01b0316826001600160a01b0316149050919050565b600080516020615457833981519152546001600160a01b031690565b6000610c518161253f565b7f4910fdfa16fed3260ed0e7147f7cc6da11a60208b5b9406d12a635614ffd91435460ff1615612b4957610fba83613aa5565b826001600160a01b03166352d1902d6040518163ffffffff1660e01b8152600401602060405180830381865afa925050508015612ba3575060408051601f3d908101601f19168201909252612ba091810190614e7c565b60015b612c065760405162461bcd60e51b815260206004820152602e60248201527f45524331393637557067726164653a206e657720696d706c656d656e7461746960448201526d6f6e206973206e6f74205555505360901b6064820152608401610e47565b6000805160206154578339815191528114612c755760405162461bcd60e51b815260206004820152602960248201527f45524331393637557067726164653a20756e737570706f727465642070726f786044820152681a58589b195555525160ba1b6064820152608401610e47565b50610fba838383613b3f565b6001600160a01b03163b151590565b80516001600160a01b03161580612cb2575060408101516001600160a01b0316155b80612cc8575060608101516001600160a01b0316155b156111c157604051631e597d8360e11b815260040160405180910390fd5b602081015163ffffffff161580612d025750805163ffffffff16155b80612d155750604081015163ffffffff16155b80612cc8575060808101516111c157604051631e597d8360e11b815260040160405180910390fd5b610c518282612915565b6001600160a01b038116612d6e5760405163538ba4f960e01b815260040160405180910390fd5b609780546001600160a01b0319166001600160a01b03838116919091179091556040805180820182527f00000000000000000000000000000000000000000000000000000000000000009092168083529051635b69006f60e11b8152600080516020615417833981519152600482015260208301919063b6d200de90602401602060405180830381865afa158015612e0a573d6000803e3d6000fd5b505050506040513d601f19601f82011682018060405250810190612e2e9190614fb9565b6001600160a01b039081169091528151609980546001600160a01b0319908116928416929092179055602090920151609a8054909316911617905550565b6060612eb38786600b0b8686868080601f01602080910402602001604051908101604052809392919081815260200183838082843760009201919091525061321392505050565b98975050505050505050565b610136546040516370a0823160e01b81526000918291829182916001600160a01b03909116906370a0823190612ef99030906004016148bc565b602060405180830381865afa158015612f16573d6000803e3d6000fd5b505050506040513d601f19601f82011682018060405250810190612f3a9190614e7c565b61013754909150600090612f549063ffffffff1683614f72565b90506000606461013a600201546069612f6d9190614dd2565b612f779190614f72565b821180612fbb575061013e54612f8b610c55565b11158015612fbb5750612f9c610c55565b61013e54612faa9190614dbf565b61013c54612fb89190614dd2565b83105b61013c5461013e54909750909150612fd1610c55565b612fdc906001614de9565b101580612fe65750805b156130065761013754612fff9063ffffffff1684614f72565b9550600193505b6101385461013f546130569190613047906127109061302790612904614dd2565b6130319190614f72565b61013754600160401b900463ffffffff16613b6a565b6130519089614f72565b613b81565b6101455490955085101561306957600094505b505050909192565b600080600080600061308288613b90565b604051631cd43d1160e31b81529092506001600160a01b038316915063e6a1e888906130b6908b908b908b906004016151aa565b608060405180830381865afa1580156130d3573d6000803e3d6000fd5b505050506040513d601f19601f820116820180604052508101906130f791906151cd565b929b919a509850909650945050505050565b604080516001600160a01b0385811660248301528481166044830152606480830185905283518084039091018152608490920183526020820180516001600160e01b03166323b872dd60e01b179052915160009283929088169161316d919061520b565b6000604051808303816000865af19150503d80600081146131aa576040519150601f19603f3d011682016040523d82523d6000602084013e6131af565b606091505b50915091508180156131d95750805115806131d95750808060200190518101906131d99190615014565b61320b5760405162461bcd60e51b815260206004820152600360248201526229aa2360e91b6044820152606401610e47565b505050505050565b805181901515600080613224610ca8565b609754919350915073__$0d78a42341742155da77b97d7f993534c7$__9063934e2cce90609b906001600160a01b031661325c611809565b8588613268578c61326b565b60005b6040516001600160e01b031960e088901b16815260048101959095526001600160a01b03938416602486015292909116604484015263ffffffff166064830152608482015260a40160006040518083038186803b1580156132cb57600080fd5b505af41580156132df573d6000803e3d6000fd5b5050609754600092506132fd91506001600160a01b03168a30613cff565b6001600160a01b038a1660009081526098602052604090205490915084156136f257600082600b0b13801561333a57506459df649400600b83900b125b1561335d57604051624963df60e91b8152600b83900b6004820152602401610e47565b6001600160a01b038a16600090815260986020526040902060010180546001600160e01b031916600160601b426001600160801b038116919091026001600160601b031916919091176001600160601b038516179091556133bf908990614dbf565b6133c9908a614dd2565b6001600160a01b038b16600090815260986020526040812080549091906133f1908490614de9565b9091555060009050613401611809565b6001600160a01b0316146135c457613417611809565b6001600160a01b031663469048406040518163ffffffff1660e01b8152600401602060405180830381865afa158015613454573d6000803e3d6000fd5b505050506040513d601f19601f820116820180604052508101906134789190614fb9565b9350613482611809565b6001600160a01b03166324a9d8536040518163ffffffff1660e01b8152600401602060405180830381865afa1580156134bf573d6000803e3d6000fd5b505050506040513d601f19601f820116820180604052508101906134e39190615227565b925073__$0d78a42341742155da77b97d7f993534c7$__634d167a906099609760009054906101000a90046001600160a01b0316609b60030160009054906101000a90046001600160a01b031688888f8961353e9190615244565b8d6040518863ffffffff1660e01b81526004016135619796959493929190615271565b600060405180830381865af415801561357e573d6000803e3d6000fd5b505050506040513d6000823e601f3d908101601f191682016040526135a691908101906152c1565b609e80546001600160a01b0319166001600160a01b03871617905595505b6135cc610ca8565b809450819550505073__$0d78a42341742155da77b97d7f993534c7$__634d167a906099609760009054906101000a90046001600160a01b0316609b60040160009054906101000a90046001600160a01b031688888f8961362d9190615244565b8d6040518863ffffffff1660e01b81526004016136509796959493929190615271565b600060405180830381865af415801561366d573d6000803e3d6000fd5b505050506040513d6000823e601f3d908101601f1916820160405261369591908101906152c1565b609f80546001600160a01b0319166001600160a01b03878116919091179091556097549197506136c6911630613d8d565b609e80546001600160601b0392909216600160a01b026001600160a01b03909216919091179055613831565b60006136fc611809565b6001600160a01b0316146137eb57613712611809565b6001600160a01b031663469048406040518163ffffffff1660e01b8152600401602060405180830381865afa15801561374f573d6000803e3d6000fd5b505050506040513d601f19601f820116820180604052508101906137739190614fb9565b935061377d611809565b6001600160a01b03166324a9d8536040518163ffffffff1660e01b8152600401602060405180830381865afa1580156137ba573d6000803e3d6000fd5b505050506040513d601f19601f820116820180604052508101906137de9190615227565b92506137eb84848b613e0c565b6137f3610ca8565b909450925061380384848b613e0c565b6001600160a01b038a16600090815260986020526040812080548b929061382b908490614de9565b90915550505b6001600160a01b038a166000818152609860205260409020547f6342e11b65ccb38a3bb259be9cda846c74ad52b36b62a2ee4799dc3db63a04a39083908861387a57600061387c565b8c5b604080519384526020840192909252600b90810b8383015286900b60608301528815156080830152519081900360a00190a25050505050949350505050565b60606139008460008086868080601f01602080910402602001604051908101604052809392919081815260200183838082843760009201919091525061321392505050565b95945050505050565b6139138282611ff7565b610c515761392081613e58565b61392b836020613e6a565b60405160200161393c92919061532e565b60408051601f198184030181529082905262461bcd60e51b8252610e479160040161477e565b61396c8282611ff7565b15610c515760008281526065602090815260408083206001600160a01b0385168085529252808320805460ff1916905551339285917ff6391f5c32d9c69d2a47ea670b442974b53935d1edc7fd64eb21e047a839171b9190a45050565b610fba8363a9059cbb60e01b84846040516024016139e892919061539d565b60408051601f198184030181529190526020810180516001600160e01b03166001600160e01b031990931692909217909152614005565b613a298282611ff7565b610c515760008281526065602090815260408083206001600160a01b03851684529091529020805460ff19166001179055613a613390565b6001600160a01b0316816001600160a01b0316837f2f8788117e7eff1d82e926ec794901d17c78024a50270940304540a733656f0d60405160405180910390a45050565b613aae81612c81565b613b105760405162461bcd60e51b815260206004820152602d60248201527f455243313936373a206e657720696d706c656d656e746174696f6e206973206e60448201526c1bdd08184818dbdb9d1c9858dd609a1b6064820152608401610e47565b60008051602061545783398151915280546001600160a01b0319166001600160a01b0392909216919091179055565b613b48836140d7565b600082511180613b555750805b15610fba57613b648383614117565b50505050565b600081831015613b7a5781610d60565b5090919050565b6000818310613b7a5781610d60565b7f65599bf746e17a00ea62e3610586992d88101b78eec3cf380706621fb97ea837547fb969d79d88acd02d04ed7ee7d43b949e7daf093d363abcfbbc43dfdfd1ce969a546001600160a01b038116613cce576001600160a01b038216613c5557826001600160a01b03166320bc44256040518163ffffffff1660e01b8152600401602060405180830381865afa158015613c2e573d6000803e3d6000fd5b505050506040513d601f19601f82011682018060405250810190613c529190614fb9565b91505b604051635b69006f60e11b815260008051602061541783398151915260048201526001600160a01b0383169063b6d200de90602401602060405180830381865afa158015613ca7573d6000803e3d6000fd5b505050506040513d601f19601f82011682018060405250810190613ccb9190614fb9565b90505b6001600160a01b038216613ce457613ce46153b6565b6001600160a01b038116613cfa57613cfa6153b6565b915091565b600080613d0b85613b90565b604051631cd43d1160e31b81529092506001600160a01b038316915063e6a1e88890613d3f908890889088906004016151aa565b608060405180830381865afa158015613d5c573d6000803e3d6000fd5b505050506040513d601f19601f82011682018060405250810190613d8091906151cd565b5090979650505050505050565b600080613d9984613b90565b60405163e8e7e2d160e01b81529092506001600160a01b038316915063e8e7e2d190613dcb9087908790600401614d31565b602060405180830381865afa158015613de8573d6000803e3d6000fd5b505050506040513d601f19601f8201168201806040525081019061215891906153cc565b6001600160a01b038316613e1f57505050565b6000612710613e3463ffffffff851684614dd2565b613e3e9190614f72565b609754909150613b64906001600160a01b03168583614200565b6060610c1b6001600160a01b03831660145b60606000613e79836002614dd2565b613e84906002614de9565b6001600160401b03811115613e9b57613e9b61455c565b6040519080825280601f01601f191660200182016040528015613ec5576020820181803683370190505b509050600360fc1b81600081518110613ee057613ee06153e9565b60200101906001600160f81b031916908160001a905350600f60fb1b81600181518110613f0f57613f0f6153e9565b60200101906001600160f81b031916908160001a9053506000613f33846002614dd2565b613f3e906001614de9565b90505b6001811115613fb6576f181899199a1a9b1b9c1cb0b131b232b360811b85600f1660108110613f7257613f726153e9565b1a60f81b828281518110613f8857613f886153e9565b60200101906001600160f81b031916908160001a90535060049490941c93613faf816153ff565b9050613f41565b508315610d605760405162461bcd60e51b815260206004820181905260248201527f537472696e67733a20686578206c656e67746820696e73756666696369656e746044820152606401610e47565b600061405a826040518060400160405280602081526020017f5361666545524332303a206c6f772d6c6576656c2063616c6c206661696c6564815250856001600160a01b03166143039092919063ffffffff16565b805190915015610fba57808060200190518101906140789190615014565b610fba5760405162461bcd60e51b815260206004820152602a60248201527f5361666545524332303a204552433230206f7065726174696f6e20646964206e6044820152691bdd081cdd58d8d9595960b21b6064820152608401610e47565b6140e081613aa5565b6040516001600160a01b038216907fbc7cd75a20ee27fd9adebab32041f755214dbc6bffa90cc0225b39da2e5c2d3b90600090a250565b606061412283612c81565b61417d5760405162461bcd60e51b815260206004820152602660248201527f416464726573733a2064656c65676174652063616c6c20746f206e6f6e2d636f6044820152651b9d1c9858dd60d21b6064820152608401610e47565b600080846001600160a01b031684604051614198919061520b565b600060405180830381855af49150503d80600081146141d3576040519150601f19603f3d011682016040523d82523d6000602084013e6141d8565b606091505b5091509150613900828260405180606001604052806027815260200161549760279139614312565b600080846001600160a01b031663a9059cbb60e01b858560405160240161422892919061539d565b60408051601f198184030181529181526020820180516001600160e01b03166001600160e01b0319909416939093179092529051614266919061520b565b6000604051808303816000865af19150503d80600081146142a3576040519150601f19603f3d011682016040523d82523d6000602084013e6142a8565b606091505b50915091508180156142d25750805115806142d25750808060200190518101906142d29190615014565b6114805760405162461bcd60e51b815260206004820152600260248201526114d560f21b6044820152606401610e47565b6060612158848460008561432b565b60608315614321575081610d60565b610d6083836143fb565b60608247101561438c5760405162461bcd60e51b815260206004820152602660248201527f416464726573733a20696e73756666696369656e742062616c616e636520666f6044820152651c8818d85b1b60d21b6064820152608401610e47565b600080866001600160a01b031685876040516143a8919061520b565b60006040518083038185875af1925050503d80600081146143e5576040519150601f19603f3d011682016040523d82523d6000602084013e6143ea565b606091505b509150915061107787838387614425565b81511561440b5781518083602001fd5b8060405162461bcd60e51b8152600401610e47919061477e565b6060831561449257825160000361448b5761443f85612c81565b61448b5760405162461bcd60e51b815260206004820152601d60248201527f416464726573733a2063616c6c20746f206e6f6e2d636f6e74726163740000006044820152606401610e47565b5081612158565b61215883836143fb565b6000602082840312156144ae57600080fd5b81356001600160e01b031981168114610d6057600080fd5b6001600160a01b03811681146111c157600080fd5b6000602082840312156144ed57600080fd5b8135610d60816144c6565b80151581146111c157600080fd5b8035614511816144f8565b919050565b6000806040838503121561452957600080fd5b8235614534816144c6565b91506020830135614544816144f8565b809150509250929050565b6001600160a01b03169052565b634e487b7160e01b600052604160045260246000fd5b604051601f8201601f191681016001600160401b038111828210171561459a5761459a61455c565b604052919050565b60006001600160401b038211156145bb576145bb61455c565b50601f01601f191660200190565b600082601f8301126145da57600080fd5b81356145ed6145e8826145a2565b614572565b81815284602083860101111561460257600080fd5b816020850160208301376000918101602001919091529392505050565b600060a0828403121561463157600080fd5b60405160a081016001600160401b0380821183831017156146545761465461455c565b8160405282935084359150614668826144c6565b818352602085013560208401526040850135604084015260608501356060840152608085013591508082111561469d57600080fd5b506146aa858286016145c9565b6080830152505092915050565b6000806000606084860312156146cc57600080fd5b83356001600160401b03808211156146e357600080fd5b6146ef8783880161461f565b945060208601359150614701826144c6565b9092506040850135908082111561471757600080fd5b50614724868287016145c9565b9150509250925092565b60005b83811015614749578181015183820152602001614731565b50506000910152565b6000815180845261476a81602086016020860161472e565b601f01601f19169290920160200192915050565b602081526000610d606020830184614752565b60008083601f8401126147a357600080fd5b5081356001600160401b038111156147ba57600080fd5b6020830191508360208285010111156147d257600080fd5b9250929050565b600080600080600080600080600060c08a8c0312156147f757600080fd5b8935614802816144c6565b985060208a0135614812816144c6565b975060408a0135965060608a01356001600160401b038082111561483557600080fd5b6148418d838e01614791565b909850965060808c013591508082111561485a57600080fd5b6148668d838e01614791565b909650945060a08c013591508082111561487f57600080fd5b5061488c8c828d01614791565b915080935050809150509295985092959850929598565b6000602082840312156148b557600080fd5b5035919050565b6001600160a01b0391909116815260200190565b600080604083850312156148e357600080fd5b823591506020830135614544816144c6565b600080600080600080600060a0888a03121561491057600080fd5b873561491b816144c6565b9650602088013561492b816144c6565b95506040880135945060608801356001600160401b038082111561494e57600080fd5b61495a8b838c01614791565b909650945060808a013591508082111561497357600080fd5b506149808a828b01614791565b989b979a50959850939692959293505050565b6000608082840312156149a557600080fd5b604051608081016001600160401b03811182821017156149c7576149c761455c565b60405290508082356149d8816144c6565b815260208301356149e8816144c6565b602082015260408301356149fb816144c6565b60408201526060830135614a0e816144c6565b6060919091015292915050565b63ffffffff811681146111c157600080fd5b803561451181614a1b565b600060e08284031215614a4a57600080fd5b60405160e081016001600160401b0381118282101715614a6c57614a6c61455c565b6040529050808235614a7d81614a1b565b81526020830135614a8d81614a1b565b60208201526040830135614aa081614a1b565b60408201526060830135614ab3816144f8565b606082015260808381013590820152614ace60a08401614a2d565b60a0820152614adf60c08401614506565b60c08201525092915050565b600060608284031215614afd57600080fd5b604051606081016001600160401b0381118282101715614b1f57614b1f61455c565b6040529050808235614b3081614a1b565b8152602083810135908201526040830135614b4a81614a1b565b6040919091015292915050565b6000806000806101e08587031215614b6e57600080fd5b614b788686614993565b9350614b878660808701614a38565b9250614b97866101608701614aeb565b91506101c0850135614ba8816144c6565b939692955090935050565b60008060408385031215614bc657600080fd5b8235614bd1816144c6565b915060208301356001600160401b03811115614bec57600080fd5b614bf8858286016145c9565b9150509250929050565b600060808284031215614c1457600080fd5b610d608383614993565b6000806101408385031215614c3257600080fd5b614c3c8484614a38565b9150614c4b8460e08501614aeb565b90509250929050565b600080600060608486031215614c6957600080fd5b8335614c74816144c6565b92506020840135915060408401356001600160401b03811115614c9657600080fd5b614724868287016145c9565b60008060008060608587031215614cb857600080fd5b8435614cc3816144c6565b93506020850135925060408501356001600160401b03811115614ce557600080fd5b614cf187828801614791565b95989497509550505050565b600060208284031215614d0f57600080fd5b81356001600160401b03811115614d2557600080fd5b612158848285016145c9565b6001600160a01b0392831681529116602082015260400190565b600080600060608486031215614d6057600080fd5b8335614d6b816144c6565b925060208401356001600160401b0380821115614d8757600080fd5b614d938783880161461f565b9350604086013591508082111561471757600080fd5b634e487b7160e01b600052601160045260246000fd5b81810381811115610c1b57610c1b614da9565b8082028115828204841417610c1b57610c1b614da9565b80820180821115610c1b57610c1b614da9565b60018060a01b0381511682526020810151602083015260408101516040830152606081015160608301526000608082015160a0608085015261215860a0850182614752565b600060018060a01b03808716835260806020840152614e636080840187614dfc565b9481166040840152929092166060909101525092915050565b600060208284031215614e8e57600080fd5b5051919050565b60008060408385031215614ea857600080fd5b8235614eb3816144c6565b91506020830135614544816144c6565b80600b0b81146111c157600080fd5b60008060408385031215614ee557600080fd5b8235614ef081614ec3565b946020939093013593505050565b6020808252602c9082015260008051602061543783398151915260408201526b19195b1959d85d1958d85b1b60a21b606082015260800190565b6020808252602c9082015260008051602061543783398151915260408201526b6163746976652070726f787960a01b606082015260800190565b600082614f8f57634e487b7160e01b600052601260045260246000fd5b500490565b60008060408385031215614fa757600080fd5b82359150602083013561454481614ec3565b600060208284031215614fcb57600080fd5b8151610d60816144c6565b6001600160a01b03858116825284811660208301528316604082015260806060820181905260009061500a90830184614752565b9695505050505050565b60006020828403121561502657600080fd5b8151610d60816144f8565b825481526001830154602082015260028301546040820152600383015461012082019061506a606084016001600160a01b03831661454f565b61507c608084018260a01d600b0b9052565b5060048401546001600160a01b031661509860a084018261454f565b50600584015460c0830152600684015460e0830152610d6061010083018461454f565b600080600080600080600060e0888a0312156150d657600080fd5b8751965060208801519550604088015194506060880151935060808801516150fd81614ec3565b60a089015190935061510e81614ec3565b60c089015190925061511f81614ec3565b8091505092959891949750929550565b600060018060a01b03808816835260a0602084015261515160a0840188614dfc565b9581166040840152938416606083015250911660809091015292915050565b63ffffffff8281168282160390808211156121f0576121f0614da9565b63ffffffff8181168382160190808211156121f0576121f0614da9565b6001600160a01b0393841681529183166020830152909116604082015260600190565b600080600080608085870312156151e357600080fd5b8451935060208501516151f581614ec3565b6040860151606090960151949790965092505050565b6000825161521d81846020870161472e565b9190910192915050565b60006020828403121561523957600080fd5b8151610d6081614a1b565b600b82810b9082900b0360016001605f1b0319811260016001605f1b0382131715610c1b57610c1b614da9565b8781526001600160a01b03878116602083015286811660408301528516606082015263ffffffff84166080820152600b83900b60a082015260e060c08201819052600090610f3d90830184614752565b6000602082840312156152d357600080fd5b81516001600160401b038111156152e957600080fd5b8201601f810184136152fa57600080fd5b80516153086145e8826145a2565b81815285602083850101111561531d57600080fd5b61390082602083016020860161472e565b76020b1b1b2b9b9a1b7b73a3937b61d1030b1b1b7bab73a1604d1b81526000835161536081601785016020880161472e565b7001034b99036b4b9b9b4b733903937b6329607d1b601791840191820152835161539181602884016020880161472e565b01602801949350505050565b6001600160a01b03929092168252602082015260400190565b634e487b7160e01b600052600160045260246000fd5b6000602082840312156153de57600080fd5b8151610d6081614ec3565b634e487b7160e01b600052603260045260246000fd5b60008161540e5761540e614da9565b50600019019056fea9214cc96615e0085d3bb077758db69497dc2dce3b2b1e97bc93c3d18d83efd346756e6374696f6e206d7573742062652063616c6c6564207468726f75676820360894a13ba1a3210667c828492db98dca3e2076cc3735a920a3ca505d382bbc241ecf16d79d0f8dbfb92cbc07fe17840425976cf0667f022fe9877caa831b08416464726573733a206c6f772d6c6576656c2064656c65676174652063616c6c206661696c6564829b824e2329e205435d941c9f13baf578548505283d29261236d8e6596d4636a26469706673582212202027bee3227ca3087d63c709f33bf82f06c231fe331f6c012104a28220589f9e64736f6c63430008130033",
  "libraries": {
    "HelperLibrary": "0x85608a0f804D0a9A72C022c812125AA25fA5B9bf"
  },
  "devdoc": {
    "errors": {
      "NotAcceptedSuperToken()": [
        {
          "details": "Thrown when SuperTokens not accepted by the SuperApp are streamed to it"
        }
      ],
      "NotImplemented()": [
        {
          "details": "Thrown if a required callback wasn't implemented (overridden by the SuperApp)"
        }
      ],
      "UnauthorizedHost()": [
        {
          "details": "Thrown when the callback caller is not the host."
        }
      ]
    },
    "events": {
      "AdminChanged(address,address)": {
        "details": "Emitted when the admin account has changed."
      },
      "BeaconUpgraded(address)": {
        "details": "Emitted when the beacon is changed."
      },
      "Initialized(uint8)": {
        "details": "Triggered when the contract has been initialized or reinitialized."
      },
      "RoleAdminChanged(bytes32,bytes32,bytes32)": {
        "details": "Emitted when `newAdminRole` is set as ``role``'s admin role, replacing `previousAdminRole` `DEFAULT_ADMIN_ROLE` is the starting admin for all roles, despite {RoleAdminChanged} not being emitted signaling this. _Available since v3.1._"
      },
      "RoleGranted(bytes32,address,address)": {
        "details": "Emitted when `account` is granted `role`. `sender` is the account that originated the contract call, an admin role bearer except when using {AccessControl-_setupRole}."
      },
      "RoleRevoked(bytes32,address,address)": {
        "details": "Emitted when `account` is revoked `role`. `sender` is the account that originated the contract call:   - if using `revokeRole`, it is the admin role bearer   - if using `renounceRole`, it is the role bearer (i.e. `account`)"
      },
      "SupporterUpdated(address,uint256,uint256,int96,int96,bool)": {
        "details": "Emitted when a supporter's contribution or flow rate is updated",
        "params": {
          "contribution": "The new total contribution amount",
          "flowRate": "The new flow rate",
          "isFlowUpdate": "True if the update was a flow rate update, false if it was a single contribution update",
          "previousContribution": "The previous total contribution amount",
          "previousFlowRate": "The previous flow rate if isFlowUpdate otherwise 0",
          "supporter": "The address of the supporter"
        }
      },
      "Upgraded(address)": {
        "details": "Emitted when the implementation is upgraded."
      }
    },
    "kind": "dev",
    "methods": {
      "addMember(address,bytes)": {
        "details": "Adds a member to the contract.",
        "params": {
          "extraData": "Additional data to validate the member.",
          "member": "The address of the member to add."
        }
      },
      "checkEntitlement(address)": {
        "details": "Checks the amount which the sender address is eligible to claim for, regardless if they have been whitelisted or not. In case the user is active, then the current day must be equal to the actual day, i.e. claim or fish has already been executed today.",
        "returns": {
          "_0": "The amount of GD tokens the address can claim."
        }
      },
      "claim()": {
        "details": "Claims UBI"
      },
      "constructor": {
        "custom:oz-upgrades-unsafe-allow": "constructor"
      },
      "currentDayInCycle()": {
        "details": "returns the day count since start of current cycle"
      },
      "distributionFormula()": {
        "details": "The claim calculation formula. Divide the daily pool with the sum of the active users. the daily balance is determined by dividing current pool by the cycle length",
        "returns": {
          "_0": "The amount of GoodDollar the user can claim"
        }
      },
      "getRoleAdmin(bytes32)": {
        "details": "Returns the admin role that controls `role`. See {grantRole} and {revokeRole}. To change a role's admin, use {_setRoleAdmin}."
      },
      "grantRole(bytes32,address)": {
        "details": "Grants `role` to `account`. If `account` had not been already granted `role`, emits a {RoleGranted} event. Requirements: - the caller must have ``role``'s admin role. May emit a {RoleGranted} event."
      },
      "handleSwap((address,uint256,uint256,uint256,bytes),address,bytes)": {
        "details": "Handles the swap of tokens using the SwapData struct",
        "params": {
          "_ctx": "The context of the transaction for superfluid",
          "_customData": "The SwapData struct containing information about the swap",
          "_sender": "The address of the sender of the transaction"
        },
        "returns": {
          "_0": "Returns the context of the transaction"
        }
      },
      "hasRole(bytes32,address)": {
        "details": "Returns `true` if `account` has been granted `role`."
      },
      "initialize((address,address,address,address),(uint32,uint32,uint32,bool,uint256,uint32,bool),(uint32,uint256,uint32),address)": {
        "details": "Initializes the contract with the given settings and limits.",
        "params": {
          "_settings": "The PoolSettings struct containing pool settings.",
          "_ubiSettings": "The UBISettings struct containing safety limits."
        }
      },
      "onTokenTransfer(address,uint256,bytes)": {
        "details": "This function is called when a token transfer occurs",
        "params": {
          "_amount": "The amount of tokens being transferred",
          "_sender": "The address of the sender"
        },
        "returns": {
          "_0": "bool Returns true to indicate that the transfer was successful"
        }
      },
      "proxiableUUID()": {
        "details": "Implementation of the ERC1822 {proxiableUUID} function. This returns the storage slot used by the implementation. It is used to validate the implementation's compatibility when performing an upgrade. IMPORTANT: A proxy pointing at a proxiable contract should not be considered proxiable itself, because this risks bricking a proxy that upgrades to it, by delegating to itself until out of gas. Thus it is critical that this function revert if invoked through a proxy. This is guaranteed by the `notDelegated` modifier."
      },
      "renounceRole(bytes32,address)": {
        "details": "Revokes `role` from the calling account. Roles are often managed via {grantRole} and {revokeRole}: this function's purpose is to provide a mechanism for accounts to lose their privileges if they are compromised (such as when a trusted device is misplaced). If the calling account had been revoked `role`, emits a {RoleRevoked} event. Requirements: - the caller must be `account`. May emit a {RoleRevoked} event."
      },
      "revokeRole(bytes32,address)": {
        "details": "Revokes `role` from `account`. If `account` had been granted `role`, emits a {RoleRevoked} event. Requirements: - the caller must have ``role``'s admin role. May emit a {RoleRevoked} event."
      },
      "setPoolSettings((address,address,address,address))": {
        "details": "Sets the settings for the pool.",
        "params": {
          "_settings": "The new pool settings."
        }
      },
      "setUBISettings((uint32,uint32,uint32,bool,uint256,uint32,bool),(uint32,uint256,uint32))": {
        "details": "Sets the safety limits for the pool.",
        "params": {
          "_ubiSettings": "The new safety limits."
        }
      },
      "support(address,uint256,bytes)": {
        "details": "allow single contribution. user needs to approve tokens first. can be used in superfluid batch actions.",
        "params": {
          "_amount": "The amount of tokens being contributed.",
          "_ctx": "The context of the transaction for superfluid in case this was used in superfluid batch. otherwise can be empty.",
          "_sender": "The address of the sender who is contributing tokens."
        },
        "returns": {
          "_0": "Returns the context of the transaction."
        }
      },
      "supportWithSwap(address,(address,uint256,uint256,uint256,bytes),bytes)": {
        "details": "allow single contribution. user needs to approve tokens first. can be used in superfluid batch actions.",
        "params": {
          "_ctx": "The context of the transaction for superfluid in case this was used in superfluid batch. otherwise can be empty.",
          "_customData": "The SwapData struct containing information about the swap",
          "_sender": "The address of the sender who is contributing tokens."
        },
        "returns": {
          "_0": "Returns the context of the transaction."
        }
      },
      "supportsInterface(bytes4)": {
        "details": "See {IERC165-supportsInterface}."
      },
      "upgradeTo(address)": {
        "details": "Upgrade the implementation of the proxy to `newImplementation`. Calls {_authorizeUpgrade}. Emits an {Upgraded} event."
      },
      "upgradeToAndCall(address,bytes)": {
        "details": "Upgrade the implementation of the proxy to `newImplementation`, and subsequently execute the function call encoded in `data`. Calls {_authorizeUpgrade}. Emits an {Upgraded} event."
      }
    },
    "version": 1
  },
  "userdoc": {
    "kind": "user",
    "methods": {},
    "version": 1
  },
  "storageLayout": {
    "storage": [
      {
        "astId": 1989,
        "contract": "contracts/UBI/UBIPool.sol:UBIPool",
        "label": "_initialized",
        "offset": 0,
        "slot": "0",
        "type": "t_uint8"
      },
      {
        "astId": 1992,
        "contract": "contracts/UBI/UBIPool.sol:UBIPool",
        "label": "_initializing",
        "offset": 1,
        "slot": "0",
        "type": "t_bool"
      },
      {
        "astId": 4120,
        "contract": "contracts/UBI/UBIPool.sol:UBIPool",
        "label": "__gap",
        "offset": 0,
        "slot": "1",
        "type": "t_array(t_uint256)50_storage"
      },
      {
        "astId": 4399,
        "contract": "contracts/UBI/UBIPool.sol:UBIPool",
        "label": "__gap",
        "offset": 0,
        "slot": "51",
        "type": "t_array(t_uint256)50_storage"
      },
      {
        "astId": 1217,
        "contract": "contracts/UBI/UBIPool.sol:UBIPool",
        "label": "_roles",
        "offset": 0,
        "slot": "101",
        "type": "t_mapping(t_bytes32,t_struct(RoleData)1212_storage)"
      },
      {
        "astId": 1512,
        "contract": "contracts/UBI/UBIPool.sol:UBIPool",
        "label": "__gap",
        "offset": 0,
        "slot": "102",
        "type": "t_array(t_uint256)49_storage"
      },
      {
        "astId": 17144,
        "contract": "contracts/UBI/UBIPool.sol:UBIPool",
        "label": "superToken",
        "offset": 0,
        "slot": "151",
        "type": "t_contract(ISuperToken)13220"
      },
      {
        "astId": 17149,
        "contract": "contracts/UBI/UBIPool.sol:UBIPool",
        "label": "supporters",
        "offset": 0,
        "slot": "152",
        "type": "t_mapping(t_address,t_struct(SupporterData)17141_storage)"
      },
      {
        "astId": 17152,
        "contract": "contracts/UBI/UBIPool.sol:UBIPool",
        "label": "cfaV1",
        "offset": 0,
        "slot": "153",
        "type": "t_struct(InitData)6837_storage"
      },
      {
        "astId": 17155,
        "contract": "contracts/UBI/UBIPool.sol:UBIPool",
        "label": "stats",
        "offset": 0,
        "slot": "155",
        "type": "t_struct(Stats)17995_storage"
      },
      {
        "astId": 17159,
        "contract": "contracts/UBI/UBIPool.sol:UBIPool",
        "label": "_reserved",
        "offset": 0,
        "slot": "162",
        "type": "t_array(t_uint256)45_storage"
      },
      {
        "astId": 1971,
        "contract": "contracts/UBI/UBIPool.sol:UBIPool",
        "label": "__gap",
        "offset": 0,
        "slot": "207",
        "type": "t_array(t_uint256)50_storage"
      },
      {
        "astId": 2286,
        "contract": "contracts/UBI/UBIPool.sol:UBIPool",
        "label": "__gap",
        "offset": 0,
        "slot": "257",
        "type": "t_array(t_uint256)50_storage"
      },
      {
        "astId": 18686,
        "contract": "contracts/UBI/UBIPool.sol:UBIPool",
        "label": "settings",
        "offset": 0,
        "slot": "307",
        "type": "t_struct(PoolSettings)18535_storage"
      },
      {
        "astId": 18689,
        "contract": "contracts/UBI/UBIPool.sol:UBIPool",
        "label": "ubiSettings",
        "offset": 0,
        "slot": "311",
        "type": "t_struct(UBISettings)18655_storage"
      },
      {
        "astId": 18692,
        "contract": "contracts/UBI/UBIPool.sol:UBIPool",
        "label": "status",
        "offset": 0,
        "slot": "314",
        "type": "t_struct(PoolStatus)18676_storage"
      },
      {
        "astId": 18695,
        "contract": "contracts/UBI/UBIPool.sol:UBIPool",
        "label": "registry",
        "offset": 0,
        "slot": "323",
        "type": "t_contract(UBIPoolFactory)20424"
      },
      {
        "astId": 18698,
        "contract": "contracts/UBI/UBIPool.sol:UBIPool",
        "label": "extendedSettings",
        "offset": 0,
        "slot": "324",
        "type": "t_struct(ExtendedSettings)18683_storage"
      }
    ],
    "types": {
      "t_address": {
        "encoding": "inplace",
        "label": "address",
        "numberOfBytes": "20"
      },
      "t_array(t_uint256)45_storage": {
        "base": "t_uint256",
        "encoding": "inplace",
        "label": "uint256[45]",
        "numberOfBytes": "1440"
      },
      "t_array(t_uint256)49_storage": {
        "base": "t_uint256",
        "encoding": "inplace",
        "label": "uint256[49]",
        "numberOfBytes": "1568"
      },
      "t_array(t_uint256)50_storage": {
        "base": "t_uint256",
        "encoding": "inplace",
        "label": "uint256[50]",
        "numberOfBytes": "1600"
      },
      "t_bool": {
        "encoding": "inplace",
        "label": "bool",
        "numberOfBytes": "1"
      },
      "t_bytes32": {
        "encoding": "inplace",
        "label": "bytes32",
        "numberOfBytes": "32"
      },
      "t_contract(IConstantFlowAgreementV1)11565": {
        "encoding": "inplace",
        "label": "contract IConstantFlowAgreementV1",
        "numberOfBytes": "20"
      },
      "t_contract(IERC20Upgradeable)2365": {
        "encoding": "inplace",
        "label": "contract IERC20Upgradeable",
        "numberOfBytes": "20"
      },
      "t_contract(IIdentityV2)18523": {
        "encoding": "inplace",
        "label": "contract IIdentityV2",
        "numberOfBytes": "20"
      },
      "t_contract(IMembersValidator)18515": {
        "encoding": "inplace",
        "label": "contract IMembersValidator",
        "numberOfBytes": "20"
      },
      "t_contract(ISuperToken)13220": {
        "encoding": "inplace",
        "label": "contract ISuperToken",
        "numberOfBytes": "20"
      },
      "t_contract(ISuperfluid)13893": {
        "encoding": "inplace",
        "label": "contract ISuperfluid",
        "numberOfBytes": "20"
      },
      "t_contract(UBIPoolFactory)20424": {
        "encoding": "inplace",
        "label": "contract UBIPoolFactory",
        "numberOfBytes": "20"
      },
      "t_int96": {
        "encoding": "inplace",
        "label": "int96",
        "numberOfBytes": "12"
      },
      "t_mapping(t_address,t_bool)": {
        "encoding": "mapping",
        "key": "t_address",
        "label": "mapping(address => bool)",
        "numberOfBytes": "32",
        "value": "t_bool"
      },
      "t_mapping(t_address,t_struct(SupporterData)17141_storage)": {
        "encoding": "mapping",
        "key": "t_address",
        "label": "mapping(address => struct GoodCollectiveSuperApp.SupporterData)",
        "numberOfBytes": "32",
        "value": "t_struct(SupporterData)17141_storage"
      },
      "t_mapping(t_address,t_uint256)": {
        "encoding": "mapping",
        "key": "t_address",
        "label": "mapping(address => uint256)",
        "numberOfBytes": "32",
        "value": "t_uint256"
      },
      "t_mapping(t_bytes32,t_struct(RoleData)1212_storage)": {
        "encoding": "mapping",
        "key": "t_bytes32",
        "label": "mapping(bytes32 => struct AccessControlUpgradeable.RoleData)",
        "numberOfBytes": "32",
        "value": "t_struct(RoleData)1212_storage"
      },
      "t_struct(ExtendedSettings)18683_storage": {
        "encoding": "inplace",
        "label": "struct UBIPool.ExtendedSettings",
        "members": [
          {
            "astId": 18678,
            "contract": "contracts/UBI/UBIPool.sol:UBIPool",
            "label": "maxPeriodClaimers",
            "offset": 0,
            "slot": "0",
            "type": "t_uint32"
          },
          {
            "astId": 18680,
            "contract": "contracts/UBI/UBIPool.sol:UBIPool",
            "label": "minClaimAmount",
            "offset": 0,
            "slot": "1",
            "type": "t_uint256"
          },
          {
            "astId": 18682,
            "contract": "contracts/UBI/UBIPool.sol:UBIPool",
            "label": "managerFeeBps",
            "offset": 0,
            "slot": "2",
            "type": "t_uint32"
          }
        ],
        "numberOfBytes": "96"
      },
      "t_struct(InitData)6837_storage": {
        "encoding": "inplace",
        "label": "struct CFAv1Library.InitData",
        "members": [
          {
            "astId": 6833,
            "contract": "contracts/UBI/UBIPool.sol:UBIPool",
            "label": "host",
            "offset": 0,
            "slot": "0",
            "type": "t_contract(ISuperfluid)13893"
          },
          {
            "astId": 6836,
            "contract": "contracts/UBI/UBIPool.sol:UBIPool",
            "label": "cfa",
            "offset": 0,
            "slot": "1",
            "type": "t_contract(IConstantFlowAgreementV1)11565"
          }
        ],
        "numberOfBytes": "64"
      },
      "t_struct(PoolSettings)18535_storage": {
        "encoding": "inplace",
        "label": "struct PoolSettings",
        "members": [
          {
            "astId": 18525,
            "contract": "contracts/UBI/UBIPool.sol:UBIPool",
            "label": "manager",
            "offset": 0,
            "slot": "0",
            "type": "t_address"
          },
          {
            "astId": 18528,
            "contract": "contracts/UBI/UBIPool.sol:UBIPool",
            "label": "membersValidator",
            "offset": 0,
            "slot": "1",
            "type": "t_contract(IMembersValidator)18515"
          },
          {
            "astId": 18531,
            "contract": "contracts/UBI/UBIPool.sol:UBIPool",
            "label": "uniquenessValidator",
            "offset": 0,
            "slot": "2",
            "type": "t_contract(IIdentityV2)18523"
          },
          {
            "astId": 18534,
            "contract": "contracts/UBI/UBIPool.sol:UBIPool",
            "label": "rewardToken",
            "offset": 0,
            "slot": "3",
            "type": "t_contract(IERC20Upgradeable)2365"
          }
        ],
        "numberOfBytes": "128"
      },
      "t_struct(PoolStatus)18676_storage": {
        "encoding": "inplace",
        "label": "struct UBIPool.PoolStatus",
        "members": [
          {
            "astId": 18657,
            "contract": "contracts/UBI/UBIPool.sol:UBIPool",
            "label": "currentDay",
            "offset": 0,
            "slot": "0",
            "type": "t_uint256"
          },
          {
            "astId": 18659,
            "contract": "contracts/UBI/UBIPool.sol:UBIPool",
            "label": "dailyUbi",
            "offset": 0,
            "slot": "1",
            "type": "t_uint256"
          },
          {
            "astId": 18661,
            "contract": "contracts/UBI/UBIPool.sol:UBIPool",
            "label": "dailyCyclePool",
            "offset": 0,
            "slot": "2",
            "type": "t_uint256"
          },
          {
            "astId": 18663,
            "contract": "contracts/UBI/UBIPool.sol:UBIPool",
            "label": "startOfCycle",
            "offset": 0,
            "slot": "3",
            "type": "t_uint256"
          },
          {
            "astId": 18665,
            "contract": "contracts/UBI/UBIPool.sol:UBIPool",
            "label": "currentCycleLength",
            "offset": 0,
            "slot": "4",
            "type": "t_uint256"
          },
          {
            "astId": 18667,
            "contract": "contracts/UBI/UBIPool.sol:UBIPool",
            "label": "periodClaimers",
            "offset": 0,
            "slot": "5",
            "type": "t_uint256"
          },
          {
            "astId": 18669,
            "contract": "contracts/UBI/UBIPool.sol:UBIPool",
            "label": "periodDistributed",
            "offset": 0,
            "slot": "6",
            "type": "t_uint256"
          },
          {
            "astId": 18673,
            "contract": "contracts/UBI/UBIPool.sol:UBIPool",
            "label": "lastClaimed",
            "offset": 0,
            "slot": "7",
            "type": "t_mapping(t_address,t_uint256)"
          },
          {
            "astId": 18675,
            "contract": "contracts/UBI/UBIPool.sol:UBIPool",
            "label": "membersCount",
            "offset": 0,
            "slot": "8",
            "type": "t_uint32"
          }
        ],
        "numberOfBytes": "288"
      },
      "t_struct(RoleData)1212_storage": {
        "encoding": "inplace",
        "label": "struct AccessControlUpgradeable.RoleData",
        "members": [
          {
            "astId": 1209,
            "contract": "contracts/UBI/UBIPool.sol:UBIPool",
            "label": "members",
            "offset": 0,
            "slot": "0",
            "type": "t_mapping(t_address,t_bool)"
          },
          {
            "astId": 1211,
            "contract": "contracts/UBI/UBIPool.sol:UBIPool",
            "label": "adminRole",
            "offset": 0,
            "slot": "1",
            "type": "t_bytes32"
          }
        ],
        "numberOfBytes": "64"
      },
      "t_struct(Stats)17995_storage": {
        "encoding": "inplace",
        "label": "struct IGoodCollectiveSuperApp.Stats",
        "members": [
          {
            "astId": 17980,
            "contract": "contracts/UBI/UBIPool.sol:UBIPool",
            "label": "netIncome",
            "offset": 0,
            "slot": "0",
            "type": "t_uint256"
          },
          {
            "astId": 17982,
            "contract": "contracts/UBI/UBIPool.sol:UBIPool",
            "label": "totalFees",
            "offset": 0,
            "slot": "1",
            "type": "t_uint256"
          },
          {
            "astId": 17984,
            "contract": "contracts/UBI/UBIPool.sol:UBIPool",
            "label": "lastUpdate",
            "offset": 0,
            "slot": "2",
            "type": "t_uint256"
          },
          {
            "astId": 17986,
            "contract": "contracts/UBI/UBIPool.sol:UBIPool",
            "label": "lastFeeRecipient",
            "offset": 0,
            "slot": "3",
            "type": "t_address"
          },
          {
            "astId": 17988,
            "contract": "contracts/UBI/UBIPool.sol:UBIPool",
            "label": "lastIncomeRate",
            "offset": 20,
            "slot": "3",
            "type": "t_int96"
          },
          {
            "astId": 17990,
            "contract": "contracts/UBI/UBIPool.sol:UBIPool",
            "label": "lastManagerFeeRecipient",
            "offset": 0,
            "slot": "4",
            "type": "t_address"
          },
          {
            "astId": 17992,
            "contract": "contracts/UBI/UBIPool.sol:UBIPool",
            "label": "protocolFees",
            "offset": 0,
            "slot": "5",
            "type": "t_uint256"
          },
          {
            "astId": 17994,
            "contract": "contracts/UBI/UBIPool.sol:UBIPool",
            "label": "managerFees",
            "offset": 0,
            "slot": "6",
            "type": "t_uint256"
          }
        ],
        "numberOfBytes": "224"
      },
      "t_struct(SupporterData)17141_storage": {
        "encoding": "inplace",
        "label": "struct GoodCollectiveSuperApp.SupporterData",
        "members": [
          {
            "astId": 17136,
            "contract": "contracts/UBI/UBIPool.sol:UBIPool",
            "label": "contribution",
            "offset": 0,
            "slot": "0",
            "type": "t_uint256"
          },
          {
            "astId": 17138,
            "contract": "contracts/UBI/UBIPool.sol:UBIPool",
            "label": "flowRate",
            "offset": 0,
            "slot": "1",
            "type": "t_int96"
          },
          {
            "astId": 17140,
            "contract": "contracts/UBI/UBIPool.sol:UBIPool",
            "label": "lastUpdated",
            "offset": 12,
            "slot": "1",
            "type": "t_uint128"
          }
        ],
        "numberOfBytes": "64"
      },
      "t_struct(UBISettings)18655_storage": {
        "encoding": "inplace",
        "label": "struct UBIPool.UBISettings",
        "members": [
          {
            "astId": 18642,
            "contract": "contracts/UBI/UBIPool.sol:UBIPool",
            "label": "cycleLengthDays",
            "offset": 0,
            "slot": "0",
            "type": "t_uint32"
          },
          {
            "astId": 18644,
            "contract": "contracts/UBI/UBIPool.sol:UBIPool",
            "label": "claimPeriodDays",
            "offset": 4,
            "slot": "0",
            "type": "t_uint32"
          },
          {
            "astId": 18646,
            "contract": "contracts/UBI/UBIPool.sol:UBIPool",
            "label": "minActiveUsers",
            "offset": 8,
            "slot": "0",
            "type": "t_uint32"
          },
          {
            "astId": 18648,
            "contract": "contracts/UBI/UBIPool.sol:UBIPool",
            "label": "claimForEnabled",
            "offset": 12,
            "slot": "0",
            "type": "t_bool"
          },
          {
            "astId": 18650,
            "contract": "contracts/UBI/UBIPool.sol:UBIPool",
            "label": "maxClaimAmount",
            "offset": 0,
            "slot": "1",
            "type": "t_uint256"
          },
          {
            "astId": 18652,
            "contract": "contracts/UBI/UBIPool.sol:UBIPool",
            "label": "maxMembers",
            "offset": 0,
            "slot": "2",
            "type": "t_uint32"
          },
          {
            "astId": 18654,
            "contract": "contracts/UBI/UBIPool.sol:UBIPool",
            "label": "onlyMembers",
            "offset": 4,
            "slot": "2",
            "type": "t_bool"
          }
        ],
        "numberOfBytes": "96"
      },
      "t_uint128": {
        "encoding": "inplace",
        "label": "uint128",
        "numberOfBytes": "16"
      },
      "t_uint256": {
        "encoding": "inplace",
        "label": "uint256",
        "numberOfBytes": "32"
      },
      "t_uint32": {
        "encoding": "inplace",
        "label": "uint32",
        "numberOfBytes": "4"
      },
      "t_uint8": {
        "encoding": "inplace",
        "label": "uint8",
        "numberOfBytes": "1"
      }
    }
  }
}