{
  "address": "0xc3e53F4d16Ae77Db1c982e75a937B9f60FE63690",
  "abi": [
    {
      "inputs": [
        {
          "internalType": "address",
          "name": "token",
          "type": "address"
        }
      ],
      "stateMutability": "nonpayable",
      "type": "constructor"
    },
    {
      "inputs": [
        {
          "components": [
            {
              "internalType": "bytes",
              "name": "path",
              "type": "bytes"
            },
            {
              "internalType": "address",
              "name": "recipient",
              "type": "address"
            },
            {
              "internalType": "uint256",
              "name": "amountIn",
              "type": "uint256"
            },
            {
              "internalType": "uint256",
              "name": "amountOutMinimum",
              "type": "uint256"
            }
          ],
          "internalType": "struct IV3SwapRouter.ExactInputParams",
          "name": "params",
          "type": "tuple"
        }
      ],
      "name": "exactInput",
      "outputs": [
        {
          "internalType": "uint256",
          "name": "amountOut",
          "type": "uint256"
        }
      ],
      "stateMutability": "payable",
      "type": "function"
    },
    {
      "inputs": [
        {
          "components": [
            {
              "internalType": "address",
              "name": "tokenIn",
              "type": "address"
            },
            {
              "internalType": "address",
              "name": "tokenOut",
              "type": "address"
            },
            {
              "internalType": "uint24",
              "name": "fee",
              "type": "uint24"
            },
            {
              "internalType": "address",
              "name": "recipient",
              "type": "address"
            },
            {
              "internalType": "uint256",
              "name": "amountIn",
              "type": "uint256"
            },
            {
              "internalType": "uint256",
              "name": "amountOutMinimum",
              "type": "uint256"
            },
            {
              "internalType": "uint160",
              "name": "sqrtPriceLimitX96",
              "type": "uint160"
            }
          ],
          "internalType": "struct IV3SwapRouter.ExactInputSingleParams",
          "name": "params",
          "type": "tuple"
        }
      ],
      "name": "exactInputSingle",
      "outputs": [
        {
          "internalType": "uint256",
          "name": "amountOut",
          "type": "uint256"
        }
      ],
      "stateMutability": "payable",
      "type": "function"
    }
  ],
  "transactionHash": "0xcdf3cbcc48c0e8ab643b5993701506f1aa03ca9294b86b1332f29341ae6d8780",
  "args": [
    "0xc5a5C42992dECbae36851359345FE25997F5C42d"
  ],
  "numDeployments": 1,
  "solcInputHash": "dbc9738503743de87277abace5773307",
  "bytecode": "0x60a060405234801561001057600080fd5b506040516103b23803806103b283398101604081905261002f91610040565b6001600160a01b0316608052610070565b60006020828403121561005257600080fd5b81516001600160a01b038116811461006957600080fd5b9392505050565b608051610321610091600039600081816087015261011501526103216000f3fe6080604052600436106100295760003560e01c806304e45aaf1461002e578063b858183f14610053575b600080fd5b61004161003c3660046101a3565b610066565b60405190815260200160405180910390f35b610041610061366004610252565b610106565b60a0810151606082015160405163a9059cbb60e01b81526001600160a01b037f0000000000000000000000000000000000000000000000000000000000000000169163a9059cbb916100bd91908590600401610293565b6020604051808303816000875af11580156100dc573d6000803e3d6000fd5b505050506040513d601f19601f8201168201806040525081019061010091906102ac565b50919050565b60608101356001600160a01b037f00000000000000000000000000000000000000000000000000000000000000001663a9059cbb61014a60408501602086016102ce565b836040518363ffffffff1660e01b81526004016100bd929190610293565b6001600160a01b038116811461017d57600080fd5b50565b803561018b81610168565b919050565b803562ffffff8116811461018b57600080fd5b600060e082840312156101b557600080fd5b60405160e081016001600160401b03811182821017156101e557634e487b7160e01b600052604160045260246000fd5b6040526101f183610180565b81526101ff60208401610180565b602082015261021060408401610190565b604082015261022160608401610180565b60608201526080830135608082015260a083013560a082015261024660c08401610180565b60c08201529392505050565b60006020828403121561026457600080fd5b81356001600160401b0381111561027a57600080fd5b82016080818503121561028c57600080fd5b9392505050565b6001600160a01b03929092168252602082015260400190565b6000602082840312156102be57600080fd5b8151801515811461028c57600080fd5b6000602082840312156102e057600080fd5b813561028c8161016856fea2646970667358221220e8ecaec777181ab94fe74ff6c90f098d477099f35d471c9f7cf6aae39be1cf8764736f6c63430008130033",
  "devdoc": {
    "kind": "dev",
    "methods": {
      "exactInput((bytes,address,uint256,uint256))": {
        "params": {
          "params": "The parameters necessary for the multi-hop swap, encoded as `ExactInputParams` in calldata"
        },
        "returns": {
          "amountOut": "The amount of the received token"
        }
      }
    },
    "version": 1
  },
  "userdoc": {
    "kind": "user",
    "methods": {
      "exactInput((bytes,address,uint256,uint256))": {
        "notice": "Swaps `amountIn` of one token for as much as possible of another along the specified path"
      }
    },
    "version": 1
  },
  "storageLayout": {
    "storage": [],
    "types": null
  }
}